{"abi":[{"inputs":[],"stateMutability":"nonpayable","type":"constructor"},{"anonymous":false,"inputs":[{"indexed":true,"internalType":"address","name":"sender","type":"address"},{"indexed":false,"internalType":"string","name":"action","type":"string"},{"indexed":false,"internalType":"int256","name":"num","type":"int256"}],"name":"Calculation","type":"event"},{"inputs":[{"internalType":"int256","name":"_a","type":"int256"},{"internalType":"int256","name":"_b","type":"int256"}],"name":"addTwo","outputs":[],"stateMutability":"nonpayable","type":"function"},{"inputs":[{"internalType":"int256","name":"_a","type":"int256"},{"internalType":"int256","name":"_b","type":"int256"}],"name":"diviTwo","outputs":[],"stateMutability":"nonpayable","type":"function"},{"inputs":[],"name":"getRes","outputs":[{"internalType":"int256","name":"","type":"int256"}],"stateMutability":"view","type":"function"},{"inputs":[{"internalType":"int256","name":"_a","type":"int256"},{"internalType":"int256","name":"_b","type":"int256"}],"name":"multiTwo","outputs":[],"stateMutability":"nonpayable","type":"function"},{"inputs":[],"name":"own","outputs":[{"internalType":"address","name":"","type":"address"}],"stateMutability":"view","type":"function"},{"inputs":[],"name":"reset","outputs":[],"stateMutability":"nonpayable","type":"function"},{"inputs":[{"internalType":"int256","name":"_a","type":"int256"},{"internalType":"int256","name":"_b","type":"int256"}],"name":"subTwo","outputs":[],"stateMutability":"nonpayable","type":"function"}],"devdoc":{"kind":"dev","methods":{},"version":1},"evm":{"assembly":"    /* \"Calcu.sol\":58:1187  contract Calcu {... */\n  mstore(0x40, 0x80)\n    /* \"Calcu.sol\":125:172  constructor() {... */\n  callvalue\n  dup1\n  iszero\n  tag_1\n  jumpi\n  0x00\n  dup1\n  revert\ntag_1:\n  pop\n    /* \"Calcu.sol\":155:165  msg.sender */\n  caller\n    /* \"Calcu.sol\":149:152  own */\n  0x01\n  0x00\n    /* \"Calcu.sol\":149:165  own = msg.sender */\n  0x0100\n  exp\n  dup2\n  sload\n  dup2\n  0xffffffffffffffffffffffffffffffffffffffff\n  mul\n  not\n  and\n  swap1\n  dup4\n  0xffffffffffffffffffffffffffffffffffffffff\n  and\n  mul\n  or\n  swap1\n  sstore\n  pop\n    /* \"Calcu.sol\":58:1187  contract Calcu {... */\n  dataSize(sub_0)\n  dup1\n  dataOffset(sub_0)\n  0x00\n  codecopy\n  0x00\n  return\nstop\n\nsub_0: assembly {\n        /* \"Calcu.sol\":58:1187  contract Calcu {... */\n      mstore(0x40, 0x80)\n      callvalue\n      dup1\n      iszero\n      tag_1\n      jumpi\n      0x00\n      dup1\n      revert\n    tag_1:\n      pop\n      jumpi(tag_2, lt(calldatasize, 0x04))\n      shr(0xe0, calldataload(0x00))\n      dup1\n      0x99cdee0e\n      gt\n      tag_10\n      jumpi\n      dup1\n      0x99cdee0e\n      eq\n      tag_6\n      jumpi\n      dup1\n      0xc10ead3f\n      eq\n      tag_7\n      jumpi\n      dup1\n      0xc18b99f6\n      eq\n      tag_8\n      jumpi\n      dup1\n      0xd826f88f\n      eq\n      tag_9\n      jumpi\n      jump(tag_2)\n    tag_10:\n      dup1\n      0x6b668a43\n      eq\n      tag_3\n      jumpi\n      dup1\n      0x77321b63\n      eq\n      tag_4\n      jumpi\n      dup1\n      0x797e7a48\n      eq\n      tag_5\n      jumpi\n    tag_2:\n      0x00\n      dup1\n      revert\n        /* \"Calcu.sol\":402:529  function addTwo(int _a, int _b) public isOwner {... */\n    tag_3:\n      tag_11\n      0x04\n      dup1\n      calldatasize\n      sub\n      dup2\n      add\n      swap1\n      tag_12\n      swap2\n      swap1\n      tag_13\n      jump\t// in\n    tag_12:\n      tag_14\n      jump\t// in\n    tag_11:\n      stop\n        /* \"Calcu.sol\":535:667  function subTwo(int _a, int _b) public isOwner {... */\n    tag_4:\n      tag_15\n      0x04\n      dup1\n      calldatasize\n      sub\n      dup2\n      add\n      swap1\n      tag_16\n      swap2\n      swap1\n      tag_13\n      jump\t// in\n    tag_16:\n      tag_17\n      jump\t// in\n    tag_15:\n      stop\n        /* \"Calcu.sol\":1002:1073  function getRes() public view returns (int) {... */\n    tag_5:\n      tag_18\n      tag_19\n      jump\t// in\n    tag_18:\n      mload(0x40)\n      tag_20\n      swap2\n      swap1\n      tag_21\n      jump\t// in\n    tag_20:\n      mload(0x40)\n      dup1\n      swap2\n      sub\n      swap1\n      return\n        /* \"Calcu.sol\":100:118  address public own */\n    tag_6:\n      tag_22\n      tag_23\n      jump\t// in\n    tag_22:\n      mload(0x40)\n      tag_24\n      swap2\n      swap1\n      tag_25\n      jump\t// in\n    tag_24:\n      mload(0x40)\n      dup1\n      swap2\n      sub\n      swap1\n      return\n        /* \"Calcu.sol\":813:996  function diviTwo(int _a, int _b) public isOwner {... */\n    tag_7:\n      tag_26\n      0x04\n      dup1\n      calldatasize\n      sub\n      dup2\n      add\n      swap1\n      tag_27\n      swap2\n      swap1\n      tag_13\n      jump\t// in\n    tag_27:\n      tag_28\n      jump\t// in\n    tag_26:\n      stop\n        /* \"Calcu.sol\":673:807  function multiTwo(int _a, int _b) public isOwner {... */\n    tag_8:\n      tag_29\n      0x04\n      dup1\n      calldatasize\n      sub\n      dup2\n      add\n      swap1\n      tag_30\n      swap2\n      swap1\n      tag_13\n      jump\t// in\n    tag_30:\n      tag_31\n      jump\t// in\n    tag_29:\n      stop\n        /* \"Calcu.sol\":1079:1185  function reset() public isOwner {... */\n    tag_9:\n      tag_32\n      tag_33\n      jump\t// in\n    tag_32:\n      stop\n        /* \"Calcu.sol\":402:529  function addTwo(int _a, int _b) public isOwner {... */\n    tag_14:\n        /* \"Calcu.sol\":301:304  own */\n      0x01\n      0x00\n      swap1\n      sload\n      swap1\n      0x0100\n      exp\n      swap1\n      div\n      0xffffffffffffffffffffffffffffffffffffffff\n      and\n        /* \"Calcu.sol\":287:304  msg.sender == own */\n      0xffffffffffffffffffffffffffffffffffffffff\n      and\n        /* \"Calcu.sol\":287:297  msg.sender */\n      caller\n        /* \"Calcu.sol\":287:304  msg.sender == own */\n      0xffffffffffffffffffffffffffffffffffffffff\n      and\n      eq\n        /* \"Calcu.sol\":279:333  require(msg.sender == own, \"Caller is not the owner.\") */\n      tag_35\n      jumpi\n      mload(0x40)\n      0x08c379a000000000000000000000000000000000000000000000000000000000\n      dup2\n      mstore\n      0x04\n      add\n      tag_36\n      swap1\n      tag_37\n      jump\t// in\n    tag_36:\n      mload(0x40)\n      dup1\n      swap2\n      sub\n      swap1\n      revert\n    tag_35:\n        /* \"Calcu.sol\":470:472  _b */\n      dup1\n        /* \"Calcu.sol\":465:467  _a */\n      dup3\n        /* \"Calcu.sol\":465:472  _a + _b */\n      tag_39\n      swap2\n      swap1\n      tag_40\n      jump\t// in\n    tag_39:\n        /* \"Calcu.sol\":459:462  res */\n      0x00\n        /* \"Calcu.sol\":459:472  res = _a + _b */\n      dup2\n      swap1\n      sstore\n      pop\n        /* \"Calcu.sol\":499:509  msg.sender */\n      caller\n        /* \"Calcu.sol\":487:522  Calculation(msg.sender, \"add\", res) */\n      0xffffffffffffffffffffffffffffffffffffffff\n      and\n      0x9381d7da0110305364b0c91faa430afcf0cd01c208ae823717a163d893df1541\n        /* \"Calcu.sol\":518:521  res */\n      sload(0x00)\n        /* \"Calcu.sol\":487:522  Calculation(msg.sender, \"add\", res) */\n      mload(0x40)\n      tag_41\n      swap2\n      swap1\n      tag_42\n      jump\t// in\n    tag_41:\n      mload(0x40)\n      dup1\n      swap2\n      sub\n      swap1\n      log2\n        /* \"Calcu.sol\":402:529  function addTwo(int _a, int _b) public isOwner {... */\n      pop\n      pop\n      jump\t// out\n        /* \"Calcu.sol\":535:667  function subTwo(int _a, int _b) public isOwner {... */\n    tag_17:\n        /* \"Calcu.sol\":301:304  own */\n      0x01\n      0x00\n      swap1\n      sload\n      swap1\n      0x0100\n      exp\n      swap1\n      div\n      0xffffffffffffffffffffffffffffffffffffffff\n      and\n        /* \"Calcu.sol\":287:304  msg.sender == own */\n      0xffffffffffffffffffffffffffffffffffffffff\n      and\n        /* \"Calcu.sol\":287:297  msg.sender */\n      caller\n        /* \"Calcu.sol\":287:304  msg.sender == own */\n      0xffffffffffffffffffffffffffffffffffffffff\n      and\n      eq\n        /* \"Calcu.sol\":279:333  require(msg.sender == own, \"Caller is not the owner.\") */\n      tag_44\n      jumpi\n      mload(0x40)\n      0x08c379a000000000000000000000000000000000000000000000000000000000\n      dup2\n      mstore\n      0x04\n      add\n      tag_45\n      swap1\n      tag_37\n      jump\t// in\n    tag_45:\n      mload(0x40)\n      dup1\n      swap2\n      sub\n      swap1\n      revert\n    tag_44:\n        /* \"Calcu.sol\":603:605  _b */\n      dup1\n        /* \"Calcu.sol\":598:600  _a */\n      dup3\n        /* \"Calcu.sol\":598:605  _a - _b */\n      tag_47\n      swap2\n      swap1\n      tag_48\n      jump\t// in\n    tag_47:\n        /* \"Calcu.sol\":592:595  res */\n      0x00\n        /* \"Calcu.sol\":592:605  res = _a - _b */\n      dup2\n      swap1\n      sstore\n      pop\n        /* \"Calcu.sol\":632:642  msg.sender */\n      caller\n        /* \"Calcu.sol\":620:660  Calculation(msg.sender, \"subtract\", res) */\n      0xffffffffffffffffffffffffffffffffffffffff\n      and\n      0x9381d7da0110305364b0c91faa430afcf0cd01c208ae823717a163d893df1541\n        /* \"Calcu.sol\":656:659  res */\n      sload(0x00)\n        /* \"Calcu.sol\":620:660  Calculation(msg.sender, \"subtract\", res) */\n      mload(0x40)\n      tag_49\n      swap2\n      swap1\n      tag_50\n      jump\t// in\n    tag_49:\n      mload(0x40)\n      dup1\n      swap2\n      sub\n      swap1\n      log2\n        /* \"Calcu.sol\":535:667  function subTwo(int _a, int _b) public isOwner {... */\n      pop\n      pop\n      jump\t// out\n        /* \"Calcu.sol\":1002:1073  function getRes() public view returns (int) {... */\n    tag_19:\n        /* \"Calcu.sol\":1041:1044  int */\n      0x00\n        /* \"Calcu.sol\":1063:1066  res */\n      dup1\n      sload\n        /* \"Calcu.sol\":1056:1066  return res */\n      swap1\n      pop\n        /* \"Calcu.sol\":1002:1073  function getRes() public view returns (int) {... */\n      swap1\n      jump\t// out\n        /* \"Calcu.sol\":100:118  address public own */\n    tag_23:\n      0x01\n      0x00\n      swap1\n      sload\n      swap1\n      0x0100\n      exp\n      swap1\n      div\n      0xffffffffffffffffffffffffffffffffffffffff\n      and\n      dup2\n      jump\t// out\n        /* \"Calcu.sol\":813:996  function diviTwo(int _a, int _b) public isOwner {... */\n    tag_28:\n        /* \"Calcu.sol\":301:304  own */\n      0x01\n      0x00\n      swap1\n      sload\n      swap1\n      0x0100\n      exp\n      swap1\n      div\n      0xffffffffffffffffffffffffffffffffffffffff\n      and\n        /* \"Calcu.sol\":287:304  msg.sender == own */\n      0xffffffffffffffffffffffffffffffffffffffff\n      and\n        /* \"Calcu.sol\":287:297  msg.sender */\n      caller\n        /* \"Calcu.sol\":287:304  msg.sender == own */\n      0xffffffffffffffffffffffffffffffffffffffff\n      and\n      eq\n        /* \"Calcu.sol\":279:333  require(msg.sender == own, \"Caller is not the owner.\") */\n      tag_53\n      jumpi\n      mload(0x40)\n      0x08c379a000000000000000000000000000000000000000000000000000000000\n      dup2\n      mstore\n      0x04\n      add\n      tag_54\n      swap1\n      tag_37\n      jump\t// in\n    tag_54:\n      mload(0x40)\n      dup1\n      swap2\n      sub\n      swap1\n      revert\n    tag_53:\n        /* \"Calcu.sol\":885:886  0 */\n      0x00\n        /* \"Calcu.sol\":879:881  _b */\n      dup2\n        /* \"Calcu.sol\":879:886  _b != 0 */\n      sub\n        /* \"Calcu.sol\":871:913  require(_b != 0, \"Cannot divide by zero.\") */\n      tag_56\n      jumpi\n      mload(0x40)\n      0x08c379a000000000000000000000000000000000000000000000000000000000\n      dup2\n      mstore\n      0x04\n      add\n      tag_57\n      swap1\n      tag_58\n      jump\t// in\n    tag_57:\n      mload(0x40)\n      dup1\n      swap2\n      sub\n      swap1\n      revert\n    tag_56:\n        /* \"Calcu.sol\":934:936  _b */\n      dup1\n        /* \"Calcu.sol\":929:931  _a */\n      dup3\n        /* \"Calcu.sol\":929:936  _a / _b */\n      tag_59\n      swap2\n      swap1\n      tag_60\n      jump\t// in\n    tag_59:\n        /* \"Calcu.sol\":923:926  res */\n      0x00\n        /* \"Calcu.sol\":923:936  res = _a / _b */\n      dup2\n      swap1\n      sstore\n      pop\n        /* \"Calcu.sol\":963:973  msg.sender */\n      caller\n        /* \"Calcu.sol\":951:989  Calculation(msg.sender, \"divide\", res) */\n      0xffffffffffffffffffffffffffffffffffffffff\n      and\n      0x9381d7da0110305364b0c91faa430afcf0cd01c208ae823717a163d893df1541\n        /* \"Calcu.sol\":985:988  res */\n      sload(0x00)\n        /* \"Calcu.sol\":951:989  Calculation(msg.sender, \"divide\", res) */\n      mload(0x40)\n      tag_61\n      swap2\n      swap1\n      tag_62\n      jump\t// in\n    tag_61:\n      mload(0x40)\n      dup1\n      swap2\n      sub\n      swap1\n      log2\n        /* \"Calcu.sol\":813:996  function diviTwo(int _a, int _b) public isOwner {... */\n      pop\n      pop\n      jump\t// out\n        /* \"Calcu.sol\":673:807  function multiTwo(int _a, int _b) public isOwner {... */\n    tag_31:\n        /* \"Calcu.sol\":301:304  own */\n      0x01\n      0x00\n      swap1\n      sload\n      swap1\n      0x0100\n      exp\n      swap1\n      div\n      0xffffffffffffffffffffffffffffffffffffffff\n      and\n        /* \"Calcu.sol\":287:304  msg.sender == own */\n      0xffffffffffffffffffffffffffffffffffffffff\n      and\n        /* \"Calcu.sol\":287:297  msg.sender */\n      caller\n        /* \"Calcu.sol\":287:304  msg.sender == own */\n      0xffffffffffffffffffffffffffffffffffffffff\n      and\n      eq\n        /* \"Calcu.sol\":279:333  require(msg.sender == own, \"Caller is not the owner.\") */\n      tag_64\n      jumpi\n      mload(0x40)\n      0x08c379a000000000000000000000000000000000000000000000000000000000\n      dup2\n      mstore\n      0x04\n      add\n      tag_65\n      swap1\n      tag_37\n      jump\t// in\n    tag_65:\n      mload(0x40)\n      dup1\n      swap2\n      sub\n      swap1\n      revert\n    tag_64:\n        /* \"Calcu.sol\":743:745  _b */\n      dup1\n        /* \"Calcu.sol\":738:740  _a */\n      dup3\n        /* \"Calcu.sol\":738:745  _a * _b */\n      tag_67\n      swap2\n      swap1\n      tag_68\n      jump\t// in\n    tag_67:\n        /* \"Calcu.sol\":732:735  res */\n      0x00\n        /* \"Calcu.sol\":732:745  res = _a * _b */\n      dup2\n      swap1\n      sstore\n      pop\n        /* \"Calcu.sol\":772:782  msg.sender */\n      caller\n        /* \"Calcu.sol\":760:800  Calculation(msg.sender, \"multiply\", res) */\n      0xffffffffffffffffffffffffffffffffffffffff\n      and\n      0x9381d7da0110305364b0c91faa430afcf0cd01c208ae823717a163d893df1541\n        /* \"Calcu.sol\":796:799  res */\n      sload(0x00)\n        /* \"Calcu.sol\":760:800  Calculation(msg.sender, \"multiply\", res) */\n      mload(0x40)\n      tag_69\n      swap2\n      swap1\n      tag_70\n      jump\t// in\n    tag_69:\n      mload(0x40)\n      dup1\n      swap2\n      sub\n      swap1\n      log2\n        /* \"Calcu.sol\":673:807  function multiTwo(int _a, int _b) public isOwner {... */\n      pop\n      pop\n      jump\t// out\n        /* \"Calcu.sol\":1079:1185  function reset() public isOwner {... */\n    tag_33:\n        /* \"Calcu.sol\":301:304  own */\n      0x01\n      0x00\n      swap1\n      sload\n      swap1\n      0x0100\n      exp\n      swap1\n      div\n      0xffffffffffffffffffffffffffffffffffffffff\n      and\n        /* \"Calcu.sol\":287:304  msg.sender == own */\n      0xffffffffffffffffffffffffffffffffffffffff\n      and\n        /* \"Calcu.sol\":287:297  msg.sender */\n      caller\n        /* \"Calcu.sol\":287:304  msg.sender == own */\n      0xffffffffffffffffffffffffffffffffffffffff\n      and\n      eq\n        /* \"Calcu.sol\":279:333  require(msg.sender == own, \"Caller is not the owner.\") */\n      tag_72\n      jumpi\n      mload(0x40)\n      0x08c379a000000000000000000000000000000000000000000000000000000000\n      dup2\n      mstore\n      0x04\n      add\n      tag_73\n      swap1\n      tag_37\n      jump\t// in\n    tag_73:\n      mload(0x40)\n      dup1\n      swap2\n      sub\n      swap1\n      revert\n    tag_72:\n        /* \"Calcu.sol\":1127:1128  0 */\n      0x00\n        /* \"Calcu.sol\":1121:1124  res */\n      dup1\n        /* \"Calcu.sol\":1121:1128  res = 0 */\n      dup2\n      swap1\n      sstore\n      pop\n        /* \"Calcu.sol\":1155:1165  msg.sender */\n      caller\n        /* \"Calcu.sol\":1143:1178  Calculation(msg.sender, \"reset\", 0) */\n      0xffffffffffffffffffffffffffffffffffffffff\n      and\n      0x9381d7da0110305364b0c91faa430afcf0cd01c208ae823717a163d893df1541\n        /* \"Calcu.sol\":1176:1177  0 */\n      0x00\n        /* \"Calcu.sol\":1143:1178  Calculation(msg.sender, \"reset\", 0) */\n      mload(0x40)\n      tag_75\n      swap2\n      swap1\n      tag_76\n      jump\t// in\n    tag_75:\n      mload(0x40)\n      dup1\n      swap2\n      sub\n      swap1\n      log2\n        /* \"Calcu.sol\":1079:1185  function reset() public isOwner {... */\n      jump\t// out\n        /* \"#utility.yul\":88:205   */\n    tag_78:\n        /* \"#utility.yul\":197:198   */\n      0x00\n        /* \"#utility.yul\":194:195   */\n      dup1\n        /* \"#utility.yul\":187:199   */\n      revert\n        /* \"#utility.yul\":334:410   */\n    tag_80:\n        /* \"#utility.yul\":370:377   */\n      0x00\n        /* \"#utility.yul\":399:404   */\n      dup2\n        /* \"#utility.yul\":388:404   */\n      swap1\n      pop\n        /* \"#utility.yul\":334:410   */\n      swap2\n      swap1\n      pop\n      jump\t// out\n        /* \"#utility.yul\":416:536   */\n    tag_81:\n        /* \"#utility.yul\":488:511   */\n      tag_114\n        /* \"#utility.yul\":505:510   */\n      dup2\n        /* \"#utility.yul\":488:511   */\n      tag_80\n      jump\t// in\n    tag_114:\n        /* \"#utility.yul\":481:486   */\n      dup2\n        /* \"#utility.yul\":478:512   */\n      eq\n        /* \"#utility.yul\":468:530   */\n      tag_115\n      jumpi\n        /* \"#utility.yul\":526:527   */\n      0x00\n        /* \"#utility.yul\":523:524   */\n      dup1\n        /* \"#utility.yul\":516:528   */\n      revert\n        /* \"#utility.yul\":468:530   */\n    tag_115:\n        /* \"#utility.yul\":416:536   */\n      pop\n      jump\t// out\n        /* \"#utility.yul\":542:679   */\n    tag_82:\n        /* \"#utility.yul\":587:592   */\n      0x00\n        /* \"#utility.yul\":625:631   */\n      dup2\n        /* \"#utility.yul\":612:632   */\n      calldataload\n        /* \"#utility.yul\":603:632   */\n      swap1\n      pop\n        /* \"#utility.yul\":641:673   */\n      tag_117\n        /* \"#utility.yul\":667:672   */\n      dup2\n        /* \"#utility.yul\":641:673   */\n      tag_81\n      jump\t// in\n    tag_117:\n        /* \"#utility.yul\":542:679   */\n      swap3\n      swap2\n      pop\n      pop\n      jump\t// out\n        /* \"#utility.yul\":685:1155   */\n    tag_13:\n        /* \"#utility.yul\":751:757   */\n      0x00\n        /* \"#utility.yul\":759:765   */\n      dup1\n        /* \"#utility.yul\":808:810   */\n      0x40\n        /* \"#utility.yul\":796:805   */\n      dup4\n        /* \"#utility.yul\":787:794   */\n      dup6\n        /* \"#utility.yul\":783:806   */\n      sub\n        /* \"#utility.yul\":779:811   */\n      slt\n        /* \"#utility.yul\":776:895   */\n      iszero\n      tag_119\n      jumpi\n        /* \"#utility.yul\":814:893   */\n      tag_120\n      tag_78\n      jump\t// in\n    tag_120:\n        /* \"#utility.yul\":776:895   */\n    tag_119:\n        /* \"#utility.yul\":934:935   */\n      0x00\n        /* \"#utility.yul\":959:1011   */\n      tag_121\n        /* \"#utility.yul\":1003:1010   */\n      dup6\n        /* \"#utility.yul\":994:1000   */\n      dup3\n        /* \"#utility.yul\":983:992   */\n      dup7\n        /* \"#utility.yul\":979:1001   */\n      add\n        /* \"#utility.yul\":959:1011   */\n      tag_82\n      jump\t// in\n    tag_121:\n        /* \"#utility.yul\":949:1011   */\n      swap3\n      pop\n        /* \"#utility.yul\":905:1021   */\n      pop\n        /* \"#utility.yul\":1060:1062   */\n      0x20\n        /* \"#utility.yul\":1086:1138   */\n      tag_122\n        /* \"#utility.yul\":1130:1137   */\n      dup6\n        /* \"#utility.yul\":1121:1127   */\n      dup3\n        /* \"#utility.yul\":1110:1119   */\n      dup7\n        /* \"#utility.yul\":1106:1128   */\n      add\n        /* \"#utility.yul\":1086:1138   */\n      tag_82\n      jump\t// in\n    tag_122:\n        /* \"#utility.yul\":1076:1138   */\n      swap2\n      pop\n        /* \"#utility.yul\":1031:1148   */\n      pop\n        /* \"#utility.yul\":685:1155   */\n      swap3\n      pop\n      swap3\n      swap1\n      pop\n      jump\t// out\n        /* \"#utility.yul\":1161:1276   */\n    tag_83:\n        /* \"#utility.yul\":1246:1269   */\n      tag_124\n        /* \"#utility.yul\":1263:1268   */\n      dup2\n        /* \"#utility.yul\":1246:1269   */\n      tag_80\n      jump\t// in\n    tag_124:\n        /* \"#utility.yul\":1241:1244   */\n      dup3\n        /* \"#utility.yul\":1234:1270   */\n      mstore\n        /* \"#utility.yul\":1161:1276   */\n      pop\n      pop\n      jump\t// out\n        /* \"#utility.yul\":1282:1500   */\n    tag_21:\n        /* \"#utility.yul\":1373:1377   */\n      0x00\n        /* \"#utility.yul\":1411:1413   */\n      0x20\n        /* \"#utility.yul\":1400:1409   */\n      dup3\n        /* \"#utility.yul\":1396:1414   */\n      add\n        /* \"#utility.yul\":1388:1414   */\n      swap1\n      pop\n        /* \"#utility.yul\":1424:1493   */\n      tag_126\n        /* \"#utility.yul\":1490:1491   */\n      0x00\n        /* \"#utility.yul\":1479:1488   */\n      dup4\n        /* \"#utility.yul\":1475:1492   */\n      add\n        /* \"#utility.yul\":1466:1472   */\n      dup5\n        /* \"#utility.yul\":1424:1493   */\n      tag_83\n      jump\t// in\n    tag_126:\n        /* \"#utility.yul\":1282:1500   */\n      swap3\n      swap2\n      pop\n      pop\n      jump\t// out\n        /* \"#utility.yul\":1506:1632   */\n    tag_84:\n        /* \"#utility.yul\":1543:1550   */\n      0x00\n        /* \"#utility.yul\":1583:1625   */\n      0xffffffffffffffffffffffffffffffffffffffff\n        /* \"#utility.yul\":1576:1581   */\n      dup3\n        /* \"#utility.yul\":1572:1626   */\n      and\n        /* \"#utility.yul\":1561:1626   */\n      swap1\n      pop\n        /* \"#utility.yul\":1506:1632   */\n      swap2\n      swap1\n      pop\n      jump\t// out\n        /* \"#utility.yul\":1638:1734   */\n    tag_85:\n        /* \"#utility.yul\":1675:1682   */\n      0x00\n        /* \"#utility.yul\":1704:1728   */\n      tag_129\n        /* \"#utility.yul\":1722:1727   */\n      dup3\n        /* \"#utility.yul\":1704:1728   */\n      tag_84\n      jump\t// in\n    tag_129:\n        /* \"#utility.yul\":1693:1728   */\n      swap1\n      pop\n        /* \"#utility.yul\":1638:1734   */\n      swap2\n      swap1\n      pop\n      jump\t// out\n        /* \"#utility.yul\":1740:1858   */\n    tag_86:\n        /* \"#utility.yul\":1827:1851   */\n      tag_131\n        /* \"#utility.yul\":1845:1850   */\n      dup2\n        /* \"#utility.yul\":1827:1851   */\n      tag_85\n      jump\t// in\n    tag_131:\n        /* \"#utility.yul\":1822:1825   */\n      dup3\n        /* \"#utility.yul\":1815:1852   */\n      mstore\n        /* \"#utility.yul\":1740:1858   */\n      pop\n      pop\n      jump\t// out\n        /* \"#utility.yul\":1864:2086   */\n    tag_25:\n        /* \"#utility.yul\":1957:1961   */\n      0x00\n        /* \"#utility.yul\":1995:1997   */\n      0x20\n        /* \"#utility.yul\":1984:1993   */\n      dup3\n        /* \"#utility.yul\":1980:1998   */\n      add\n        /* \"#utility.yul\":1972:1998   */\n      swap1\n      pop\n        /* \"#utility.yul\":2008:2079   */\n      tag_133\n        /* \"#utility.yul\":2076:2077   */\n      0x00\n        /* \"#utility.yul\":2065:2074   */\n      dup4\n        /* \"#utility.yul\":2061:2078   */\n      add\n        /* \"#utility.yul\":2052:2058   */\n      dup5\n        /* \"#utility.yul\":2008:2079   */\n      tag_86\n      jump\t// in\n    tag_133:\n        /* \"#utility.yul\":1864:2086   */\n      swap3\n      swap2\n      pop\n      pop\n      jump\t// out\n        /* \"#utility.yul\":2092:2261   */\n    tag_87:\n        /* \"#utility.yul\":2176:2187   */\n      0x00\n        /* \"#utility.yul\":2210:2216   */\n      dup3\n        /* \"#utility.yul\":2205:2208   */\n      dup3\n        /* \"#utility.yul\":2198:2217   */\n      mstore\n        /* \"#utility.yul\":2250:2254   */\n      0x20\n        /* \"#utility.yul\":2245:2248   */\n      dup3\n        /* \"#utility.yul\":2241:2255   */\n      add\n        /* \"#utility.yul\":2226:2255   */\n      swap1\n      pop\n        /* \"#utility.yul\":2092:2261   */\n      swap3\n      swap2\n      pop\n      pop\n      jump\t// out\n        /* \"#utility.yul\":2267:2441   */\n    tag_88:\n        /* \"#utility.yul\":2407:2433   */\n      0x43616c6c6572206973206e6f7420746865206f776e65722e0000000000000000\n        /* \"#utility.yul\":2403:2404   */\n      0x00\n        /* \"#utility.yul\":2395:2401   */\n      dup3\n        /* \"#utility.yul\":2391:2405   */\n      add\n        /* \"#utility.yul\":2384:2434   */\n      mstore\n        /* \"#utility.yul\":2267:2441   */\n      pop\n      jump\t// out\n        /* \"#utility.yul\":2447:2813   */\n    tag_89:\n        /* \"#utility.yul\":2589:2592   */\n      0x00\n        /* \"#utility.yul\":2610:2677   */\n      tag_137\n        /* \"#utility.yul\":2674:2676   */\n      0x18\n        /* \"#utility.yul\":2669:2672   */\n      dup4\n        /* \"#utility.yul\":2610:2677   */\n      tag_87\n      jump\t// in\n    tag_137:\n        /* \"#utility.yul\":2603:2677   */\n      swap2\n      pop\n        /* \"#utility.yul\":2686:2779   */\n      tag_138\n        /* \"#utility.yul\":2775:2778   */\n      dup3\n        /* \"#utility.yul\":2686:2779   */\n      tag_88\n      jump\t// in\n    tag_138:\n        /* \"#utility.yul\":2804:2806   */\n      0x20\n        /* \"#utility.yul\":2799:2802   */\n      dup3\n        /* \"#utility.yul\":2795:2807   */\n      add\n        /* \"#utility.yul\":2788:2807   */\n      swap1\n      pop\n        /* \"#utility.yul\":2447:2813   */\n      swap2\n      swap1\n      pop\n      jump\t// out\n        /* \"#utility.yul\":2819:3238   */\n    tag_37:\n        /* \"#utility.yul\":2985:2989   */\n      0x00\n        /* \"#utility.yul\":3023:3025   */\n      0x20\n        /* \"#utility.yul\":3012:3021   */\n      dup3\n        /* \"#utility.yul\":3008:3026   */\n      add\n        /* \"#utility.yul\":3000:3026   */\n      swap1\n      pop\n        /* \"#utility.yul\":3072:3081   */\n      dup2\n        /* \"#utility.yul\":3066:3070   */\n      dup2\n        /* \"#utility.yul\":3062:3082   */\n      sub\n        /* \"#utility.yul\":3058:3059   */\n      0x00\n        /* \"#utility.yul\":3047:3056   */\n      dup4\n        /* \"#utility.yul\":3043:3060   */\n      add\n        /* \"#utility.yul\":3036:3083   */\n      mstore\n        /* \"#utility.yul\":3100:3231   */\n      tag_140\n        /* \"#utility.yul\":3226:3230   */\n      dup2\n        /* \"#utility.yul\":3100:3231   */\n      tag_89\n      jump\t// in\n    tag_140:\n        /* \"#utility.yul\":3092:3231   */\n      swap1\n      pop\n        /* \"#utility.yul\":2819:3238   */\n      swap2\n      swap1\n      pop\n      jump\t// out\n        /* \"#utility.yul\":3244:3424   */\n    tag_90:\n        /* \"#utility.yul\":3292:3369   */\n      0x4e487b7100000000000000000000000000000000000000000000000000000000\n        /* \"#utility.yul\":3289:3290   */\n      0x00\n        /* \"#utility.yul\":3282:3370   */\n      mstore\n        /* \"#utility.yul\":3389:3393   */\n      0x11\n        /* \"#utility.yul\":3386:3387   */\n      0x04\n        /* \"#utility.yul\":3379:3394   */\n      mstore\n        /* \"#utility.yul\":3413:3417   */\n      0x24\n        /* \"#utility.yul\":3410:3411   */\n      0x00\n        /* \"#utility.yul\":3403:3418   */\n      revert\n        /* \"#utility.yul\":3430:3805   */\n    tag_40:\n        /* \"#utility.yul\":3469:3472   */\n      0x00\n        /* \"#utility.yul\":3488:3507   */\n      tag_143\n        /* \"#utility.yul\":3505:3506   */\n      dup3\n        /* \"#utility.yul\":3488:3507   */\n      tag_80\n      jump\t// in\n    tag_143:\n        /* \"#utility.yul\":3483:3507   */\n      swap2\n      pop\n        /* \"#utility.yul\":3521:3540   */\n      tag_144\n        /* \"#utility.yul\":3538:3539   */\n      dup4\n        /* \"#utility.yul\":3521:3540   */\n      tag_80\n      jump\t// in\n    tag_144:\n        /* \"#utility.yul\":3516:3540   */\n      swap3\n      pop\n        /* \"#utility.yul\":3563:3564   */\n      dup3\n        /* \"#utility.yul\":3560:3561   */\n      dup3\n        /* \"#utility.yul\":3556:3565   */\n      add\n        /* \"#utility.yul\":3549:3565   */\n      swap1\n      pop\n        /* \"#utility.yul\":3761:3762   */\n      dup3\n        /* \"#utility.yul\":3756:3759   */\n      dup2\n        /* \"#utility.yul\":3752:3763   */\n      slt\n        /* \"#utility.yul\":3745:3764   */\n      iszero\n        /* \"#utility.yul\":3741:3742   */\n      0x00\n        /* \"#utility.yul\":3738:3739   */\n      dup4\n        /* \"#utility.yul\":3734:3743   */\n      slt\n        /* \"#utility.yul\":3730:3765   */\n      and\n        /* \"#utility.yul\":3713:3714   */\n      dup4\n        /* \"#utility.yul\":3708:3711   */\n      dup3\n        /* \"#utility.yul\":3704:3715   */\n      slt\n        /* \"#utility.yul\":3699:3700   */\n      0x00\n        /* \"#utility.yul\":3696:3697   */\n      dup5\n        /* \"#utility.yul\":3692:3701   */\n      slt\n        /* \"#utility.yul\":3685:3702   */\n      iszero\n        /* \"#utility.yul\":3681:3716   */\n      and\n        /* \"#utility.yul\":3665:3775   */\n      or\n        /* \"#utility.yul\":3662:3798   */\n      iszero\n      tag_145\n      jumpi\n        /* \"#utility.yul\":3778:3796   */\n      tag_146\n      tag_90\n      jump\t// in\n    tag_146:\n        /* \"#utility.yul\":3662:3798   */\n    tag_145:\n        /* \"#utility.yul\":3430:3805   */\n      swap3\n      swap2\n      pop\n      pop\n      jump\t// out\n        /* \"#utility.yul\":3811:3964   */\n    tag_91:\n        /* \"#utility.yul\":3951:3956   */\n      0x6164640000000000000000000000000000000000000000000000000000000000\n        /* \"#utility.yul\":3947:3948   */\n      0x00\n        /* \"#utility.yul\":3939:3945   */\n      dup3\n        /* \"#utility.yul\":3935:3949   */\n      add\n        /* \"#utility.yul\":3928:3957   */\n      mstore\n        /* \"#utility.yul\":3811:3964   */\n      pop\n      jump\t// out\n        /* \"#utility.yul\":3970:4335   */\n    tag_92:\n        /* \"#utility.yul\":4112:4115   */\n      0x00\n        /* \"#utility.yul\":4133:4199   */\n      tag_149\n        /* \"#utility.yul\":4197:4198   */\n      0x03\n        /* \"#utility.yul\":4192:4195   */\n      dup4\n        /* \"#utility.yul\":4133:4199   */\n      tag_87\n      jump\t// in\n    tag_149:\n        /* \"#utility.yul\":4126:4199   */\n      swap2\n      pop\n        /* \"#utility.yul\":4208:4301   */\n      tag_150\n        /* \"#utility.yul\":4297:4300   */\n      dup3\n        /* \"#utility.yul\":4208:4301   */\n      tag_91\n      jump\t// in\n    tag_150:\n        /* \"#utility.yul\":4326:4328   */\n      0x20\n        /* \"#utility.yul\":4321:4324   */\n      dup3\n        /* \"#utility.yul\":4317:4329   */\n      add\n        /* \"#utility.yul\":4310:4329   */\n      swap1\n      pop\n        /* \"#utility.yul\":3970:4335   */\n      swap2\n      swap1\n      pop\n      jump\t// out\n        /* \"#utility.yul\":4341:4866   */\n    tag_42:\n        /* \"#utility.yul\":4533:4537   */\n      0x00\n        /* \"#utility.yul\":4571:4573   */\n      0x40\n        /* \"#utility.yul\":4560:4569   */\n      dup3\n        /* \"#utility.yul\":4556:4574   */\n      add\n        /* \"#utility.yul\":4548:4574   */\n      swap1\n      pop\n        /* \"#utility.yul\":4620:4629   */\n      dup2\n        /* \"#utility.yul\":4614:4618   */\n      dup2\n        /* \"#utility.yul\":4610:4630   */\n      sub\n        /* \"#utility.yul\":4606:4607   */\n      0x00\n        /* \"#utility.yul\":4595:4604   */\n      dup4\n        /* \"#utility.yul\":4591:4608   */\n      add\n        /* \"#utility.yul\":4584:4631   */\n      mstore\n        /* \"#utility.yul\":4648:4779   */\n      tag_152\n        /* \"#utility.yul\":4774:4778   */\n      dup2\n        /* \"#utility.yul\":4648:4779   */\n      tag_92\n      jump\t// in\n    tag_152:\n        /* \"#utility.yul\":4640:4779   */\n      swap1\n      pop\n        /* \"#utility.yul\":4789:4859   */\n      tag_153\n        /* \"#utility.yul\":4855:4857   */\n      0x20\n        /* \"#utility.yul\":4844:4853   */\n      dup4\n        /* \"#utility.yul\":4840:4858   */\n      add\n        /* \"#utility.yul\":4831:4837   */\n      dup5\n        /* \"#utility.yul\":4789:4859   */\n      tag_83\n      jump\t// in\n    tag_153:\n        /* \"#utility.yul\":4341:4866   */\n      swap3\n      swap2\n      pop\n      pop\n      jump\t// out\n        /* \"#utility.yul\":4872:5244   */\n    tag_48:\n        /* \"#utility.yul\":4911:4915   */\n      0x00\n        /* \"#utility.yul\":4931:4950   */\n      tag_155\n        /* \"#utility.yul\":4948:4949   */\n      dup3\n        /* \"#utility.yul\":4931:4950   */\n      tag_80\n      jump\t// in\n    tag_155:\n        /* \"#utility.yul\":4926:4950   */\n      swap2\n      pop\n        /* \"#utility.yul\":4964:4983   */\n      tag_156\n        /* \"#utility.yul\":4981:4982   */\n      dup4\n        /* \"#utility.yul\":4964:4983   */\n      tag_80\n      jump\t// in\n    tag_156:\n        /* \"#utility.yul\":4959:4983   */\n      swap3\n      pop\n        /* \"#utility.yul\":5007:5008   */\n      dup3\n        /* \"#utility.yul\":5004:5005   */\n      dup3\n        /* \"#utility.yul\":5000:5009   */\n      sub\n        /* \"#utility.yul\":4992:5009   */\n      swap1\n      pop\n        /* \"#utility.yul\":5201:5202   */\n      dup2\n        /* \"#utility.yul\":5195:5199   */\n      dup2\n        /* \"#utility.yul\":5191:5203   */\n      slt\n        /* \"#utility.yul\":5187:5188   */\n      0x00\n        /* \"#utility.yul\":5184:5185   */\n      dup5\n        /* \"#utility.yul\":5180:5189   */\n      slt\n        /* \"#utility.yul\":5176:5204   */\n      and\n        /* \"#utility.yul\":5159:5160   */\n      dup3\n        /* \"#utility.yul\":5153:5157   */\n      dup3\n        /* \"#utility.yul\":5149:5161   */\n      sgt\n        /* \"#utility.yul\":5144:5145   */\n      0x00\n        /* \"#utility.yul\":5141:5142   */\n      dup6\n        /* \"#utility.yul\":5137:5146   */\n      slt\n        /* \"#utility.yul\":5130:5147   */\n      iszero\n        /* \"#utility.yul\":5126:5162   */\n      and\n        /* \"#utility.yul\":5110:5214   */\n      or\n        /* \"#utility.yul\":5107:5237   */\n      iszero\n      tag_157\n      jumpi\n        /* \"#utility.yul\":5217:5235   */\n      tag_158\n      tag_90\n      jump\t// in\n    tag_158:\n        /* \"#utility.yul\":5107:5237   */\n    tag_157:\n        /* \"#utility.yul\":4872:5244   */\n      swap3\n      swap2\n      pop\n      pop\n      jump\t// out\n        /* \"#utility.yul\":5250:5408   */\n    tag_93:\n        /* \"#utility.yul\":5390:5400   */\n      0x7375627472616374000000000000000000000000000000000000000000000000\n        /* \"#utility.yul\":5386:5387   */\n      0x00\n        /* \"#utility.yul\":5378:5384   */\n      dup3\n        /* \"#utility.yul\":5374:5388   */\n      add\n        /* \"#utility.yul\":5367:5401   */\n      mstore\n        /* \"#utility.yul\":5250:5408   */\n      pop\n      jump\t// out\n        /* \"#utility.yul\":5414:5779   */\n    tag_94:\n        /* \"#utility.yul\":5556:5559   */\n      0x00\n        /* \"#utility.yul\":5577:5643   */\n      tag_161\n        /* \"#utility.yul\":5641:5642   */\n      0x08\n        /* \"#utility.yul\":5636:5639   */\n      dup4\n        /* \"#utility.yul\":5577:5643   */\n      tag_87\n      jump\t// in\n    tag_161:\n        /* \"#utility.yul\":5570:5643   */\n      swap2\n      pop\n        /* \"#utility.yul\":5652:5745   */\n      tag_162\n        /* \"#utility.yul\":5741:5744   */\n      dup3\n        /* \"#utility.yul\":5652:5745   */\n      tag_93\n      jump\t// in\n    tag_162:\n        /* \"#utility.yul\":5770:5772   */\n      0x20\n        /* \"#utility.yul\":5765:5768   */\n      dup3\n        /* \"#utility.yul\":5761:5773   */\n      add\n        /* \"#utility.yul\":5754:5773   */\n      swap1\n      pop\n        /* \"#utility.yul\":5414:5779   */\n      swap2\n      swap1\n      pop\n      jump\t// out\n        /* \"#utility.yul\":5785:6310   */\n    tag_50:\n        /* \"#utility.yul\":5977:5981   */\n      0x00\n        /* \"#utility.yul\":6015:6017   */\n      0x40\n        /* \"#utility.yul\":6004:6013   */\n      dup3\n        /* \"#utility.yul\":6000:6018   */\n      add\n        /* \"#utility.yul\":5992:6018   */\n      swap1\n      pop\n        /* \"#utility.yul\":6064:6073   */\n      dup2\n        /* \"#utility.yul\":6058:6062   */\n      dup2\n        /* \"#utility.yul\":6054:6074   */\n      sub\n        /* \"#utility.yul\":6050:6051   */\n      0x00\n        /* \"#utility.yul\":6039:6048   */\n      dup4\n        /* \"#utility.yul\":6035:6052   */\n      add\n        /* \"#utility.yul\":6028:6075   */\n      mstore\n        /* \"#utility.yul\":6092:6223   */\n      tag_164\n        /* \"#utility.yul\":6218:6222   */\n      dup2\n        /* \"#utility.yul\":6092:6223   */\n      tag_94\n      jump\t// in\n    tag_164:\n        /* \"#utility.yul\":6084:6223   */\n      swap1\n      pop\n        /* \"#utility.yul\":6233:6303   */\n      tag_165\n        /* \"#utility.yul\":6299:6301   */\n      0x20\n        /* \"#utility.yul\":6288:6297   */\n      dup4\n        /* \"#utility.yul\":6284:6302   */\n      add\n        /* \"#utility.yul\":6275:6281   */\n      dup5\n        /* \"#utility.yul\":6233:6303   */\n      tag_83\n      jump\t// in\n    tag_165:\n        /* \"#utility.yul\":5785:6310   */\n      swap3\n      swap2\n      pop\n      pop\n      jump\t// out\n        /* \"#utility.yul\":6316:6488   */\n    tag_95:\n        /* \"#utility.yul\":6456:6480   */\n      0x43616e6e6f7420646976696465206279207a65726f2e00000000000000000000\n        /* \"#utility.yul\":6452:6453   */\n      0x00\n        /* \"#utility.yul\":6444:6450   */\n      dup3\n        /* \"#utility.yul\":6440:6454   */\n      add\n        /* \"#utility.yul\":6433:6481   */\n      mstore\n        /* \"#utility.yul\":6316:6488   */\n      pop\n      jump\t// out\n        /* \"#utility.yul\":6494:6860   */\n    tag_96:\n        /* \"#utility.yul\":6636:6639   */\n      0x00\n        /* \"#utility.yul\":6657:6724   */\n      tag_168\n        /* \"#utility.yul\":6721:6723   */\n      0x16\n        /* \"#utility.yul\":6716:6719   */\n      dup4\n        /* \"#utility.yul\":6657:6724   */\n      tag_87\n      jump\t// in\n    tag_168:\n        /* \"#utility.yul\":6650:6724   */\n      swap2\n      pop\n        /* \"#utility.yul\":6733:6826   */\n      tag_169\n        /* \"#utility.yul\":6822:6825   */\n      dup3\n        /* \"#utility.yul\":6733:6826   */\n      tag_95\n      jump\t// in\n    tag_169:\n        /* \"#utility.yul\":6851:6853   */\n      0x20\n        /* \"#utility.yul\":6846:6849   */\n      dup3\n        /* \"#utility.yul\":6842:6854   */\n      add\n        /* \"#utility.yul\":6835:6854   */\n      swap1\n      pop\n        /* \"#utility.yul\":6494:6860   */\n      swap2\n      swap1\n      pop\n      jump\t// out\n        /* \"#utility.yul\":6866:7285   */\n    tag_58:\n        /* \"#utility.yul\":7032:7036   */\n      0x00\n        /* \"#utility.yul\":7070:7072   */\n      0x20\n        /* \"#utility.yul\":7059:7068   */\n      dup3\n        /* \"#utility.yul\":7055:7073   */\n      add\n        /* \"#utility.yul\":7047:7073   */\n      swap1\n      pop\n        /* \"#utility.yul\":7119:7128   */\n      dup2\n        /* \"#utility.yul\":7113:7117   */\n      dup2\n        /* \"#utility.yul\":7109:7129   */\n      sub\n        /* \"#utility.yul\":7105:7106   */\n      0x00\n        /* \"#utility.yul\":7094:7103   */\n      dup4\n        /* \"#utility.yul\":7090:7107   */\n      add\n        /* \"#utility.yul\":7083:7130   */\n      mstore\n        /* \"#utility.yul\":7147:7278   */\n      tag_171\n        /* \"#utility.yul\":7273:7277   */\n      dup2\n        /* \"#utility.yul\":7147:7278   */\n      tag_96\n      jump\t// in\n    tag_171:\n        /* \"#utility.yul\":7139:7278   */\n      swap1\n      pop\n        /* \"#utility.yul\":6866:7285   */\n      swap2\n      swap1\n      pop\n      jump\t// out\n        /* \"#utility.yul\":7291:7471   */\n    tag_97:\n        /* \"#utility.yul\":7339:7416   */\n      0x4e487b7100000000000000000000000000000000000000000000000000000000\n        /* \"#utility.yul\":7336:7337   */\n      0x00\n        /* \"#utility.yul\":7329:7417   */\n      mstore\n        /* \"#utility.yul\":7436:7440   */\n      0x12\n        /* \"#utility.yul\":7433:7434   */\n      0x04\n        /* \"#utility.yul\":7426:7441   */\n      mstore\n        /* \"#utility.yul\":7460:7464   */\n      0x24\n        /* \"#utility.yul\":7457:7458   */\n      0x00\n        /* \"#utility.yul\":7450:7465   */\n      revert\n        /* \"#utility.yul\":7477:7862   */\n    tag_60:\n        /* \"#utility.yul\":7516:7517   */\n      0x00\n        /* \"#utility.yul\":7533:7552   */\n      tag_174\n        /* \"#utility.yul\":7550:7551   */\n      dup3\n        /* \"#utility.yul\":7533:7552   */\n      tag_80\n      jump\t// in\n    tag_174:\n        /* \"#utility.yul\":7528:7552   */\n      swap2\n      pop\n        /* \"#utility.yul\":7566:7585   */\n      tag_175\n        /* \"#utility.yul\":7583:7584   */\n      dup4\n        /* \"#utility.yul\":7566:7585   */\n      tag_80\n      jump\t// in\n    tag_175:\n        /* \"#utility.yul\":7561:7585   */\n      swap3\n      pop\n        /* \"#utility.yul\":7604:7605   */\n      dup3\n        /* \"#utility.yul\":7594:7629   */\n      tag_176\n      jumpi\n        /* \"#utility.yul\":7609:7627   */\n      tag_177\n      tag_97\n      jump\t// in\n    tag_177:\n        /* \"#utility.yul\":7594:7629   */\n    tag_176:\n        /* \"#utility.yul\":7795:7796   */\n      0x01\n        /* \"#utility.yul\":7792:7793   */\n      0x00\n        /* \"#utility.yul\":7788:7797   */\n      sub\n        /* \"#utility.yul\":7785:7786   */\n      dup4\n        /* \"#utility.yul\":7782:7798   */\n      eq\n        /* \"#utility.yul\":7701:7767   */\n      0x8000000000000000000000000000000000000000000000000000000000000000\n        /* \"#utility.yul\":7698:7699   */\n      dup4\n        /* \"#utility.yul\":7695:7768   */\n      eq\n        /* \"#utility.yul\":7678:7808   */\n      and\n        /* \"#utility.yul\":7675:7831   */\n      iszero\n      tag_178\n      jumpi\n        /* \"#utility.yul\":7811:7829   */\n      tag_179\n      tag_90\n      jump\t// in\n    tag_179:\n        /* \"#utility.yul\":7675:7831   */\n    tag_178:\n        /* \"#utility.yul\":7854:7855   */\n      dup3\n        /* \"#utility.yul\":7851:7852   */\n      dup3\n        /* \"#utility.yul\":7846:7856   */\n      sdiv\n        /* \"#utility.yul\":7841:7856   */\n      swap1\n      pop\n        /* \"#utility.yul\":7477:7862   */\n      swap3\n      swap2\n      pop\n      pop\n      jump\t// out\n        /* \"#utility.yul\":7868:8024   */\n    tag_98:\n        /* \"#utility.yul\":8008:8016   */\n      0x6469766964650000000000000000000000000000000000000000000000000000\n        /* \"#utility.yul\":8004:8005   */\n      0x00\n        /* \"#utility.yul\":7996:8002   */\n      dup3\n        /* \"#utility.yul\":7992:8006   */\n      add\n        /* \"#utility.yul\":7985:8017   */\n      mstore\n        /* \"#utility.yul\":7868:8024   */\n      pop\n      jump\t// out\n        /* \"#utility.yul\":8030:8395   */\n    tag_99:\n        /* \"#utility.yul\":8172:8175   */\n      0x00\n        /* \"#utility.yul\":8193:8259   */\n      tag_182\n        /* \"#utility.yul\":8257:8258   */\n      0x06\n        /* \"#utility.yul\":8252:8255   */\n      dup4\n        /* \"#utility.yul\":8193:8259   */\n      tag_87\n      jump\t// in\n    tag_182:\n        /* \"#utility.yul\":8186:8259   */\n      swap2\n      pop\n        /* \"#utility.yul\":8268:8361   */\n      tag_183\n        /* \"#utility.yul\":8357:8360   */\n      dup3\n        /* \"#utility.yul\":8268:8361   */\n      tag_98\n      jump\t// in\n    tag_183:\n        /* \"#utility.yul\":8386:8388   */\n      0x20\n        /* \"#utility.yul\":8381:8384   */\n      dup3\n        /* \"#utility.yul\":8377:8389   */\n      add\n        /* \"#utility.yul\":8370:8389   */\n      swap1\n      pop\n        /* \"#utility.yul\":8030:8395   */\n      swap2\n      swap1\n      pop\n      jump\t// out\n        /* \"#utility.yul\":8401:8926   */\n    tag_62:\n        /* \"#utility.yul\":8593:8597   */\n      0x00\n        /* \"#utility.yul\":8631:8633   */\n      0x40\n        /* \"#utility.yul\":8620:8629   */\n      dup3\n        /* \"#utility.yul\":8616:8634   */\n      add\n        /* \"#utility.yul\":8608:8634   */\n      swap1\n      pop\n        /* \"#utility.yul\":8680:8689   */\n      dup2\n        /* \"#utility.yul\":8674:8678   */\n      dup2\n        /* \"#utility.yul\":8670:8690   */\n      sub\n        /* \"#utility.yul\":8666:8667   */\n      0x00\n        /* \"#utility.yul\":8655:8664   */\n      dup4\n        /* \"#utility.yul\":8651:8668   */\n      add\n        /* \"#utility.yul\":8644:8691   */\n      mstore\n        /* \"#utility.yul\":8708:8839   */\n      tag_185\n        /* \"#utility.yul\":8834:8838   */\n      dup2\n        /* \"#utility.yul\":8708:8839   */\n      tag_99\n      jump\t// in\n    tag_185:\n        /* \"#utility.yul\":8700:8839   */\n      swap1\n      pop\n        /* \"#utility.yul\":8849:8919   */\n      tag_186\n        /* \"#utility.yul\":8915:8917   */\n      0x20\n        /* \"#utility.yul\":8904:8913   */\n      dup4\n        /* \"#utility.yul\":8900:8918   */\n      add\n        /* \"#utility.yul\":8891:8897   */\n      dup5\n        /* \"#utility.yul\":8849:8919   */\n      tag_83\n      jump\t// in\n    tag_186:\n        /* \"#utility.yul\":8401:8926   */\n      swap3\n      swap2\n      pop\n      pop\n      jump\t// out\n        /* \"#utility.yul\":8932:9488   */\n    tag_68:\n        /* \"#utility.yul\":8971:8978   */\n      0x00\n        /* \"#utility.yul\":8994:9013   */\n      tag_188\n        /* \"#utility.yul\":9011:9012   */\n      dup3\n        /* \"#utility.yul\":8994:9013   */\n      tag_80\n      jump\t// in\n    tag_188:\n        /* \"#utility.yul\":8989:9013   */\n      swap2\n      pop\n        /* \"#utility.yul\":9027:9046   */\n      tag_189\n        /* \"#utility.yul\":9044:9045   */\n      dup4\n        /* \"#utility.yul\":9027:9046   */\n      tag_80\n      jump\t// in\n    tag_189:\n        /* \"#utility.yul\":9022:9046   */\n      swap3\n      pop\n        /* \"#utility.yul\":9081:9082   */\n      dup3\n        /* \"#utility.yul\":9078:9079   */\n      dup3\n        /* \"#utility.yul\":9074:9083   */\n      mul\n        /* \"#utility.yul\":9103:9132   */\n      tag_190\n        /* \"#utility.yul\":9120:9131   */\n      dup2\n        /* \"#utility.yul\":9103:9132   */\n      tag_80\n      jump\t// in\n    tag_190:\n        /* \"#utility.yul\":9092:9132   */\n      swap2\n      pop\n        /* \"#utility.yul\":9190:9256   */\n      0x8000000000000000000000000000000000000000000000000000000000000000\n        /* \"#utility.yul\":9187:9188   */\n      dup5\n        /* \"#utility.yul\":9184:9257   */\n      eq\n        /* \"#utility.yul\":9180:9181   */\n      0x00\n        /* \"#utility.yul\":9177:9178   */\n      dup5\n        /* \"#utility.yul\":9173:9182   */\n      slt\n        /* \"#utility.yul\":9169:9258   */\n      and\n        /* \"#utility.yul\":9166:9281   */\n      iszero\n      tag_191\n      jumpi\n        /* \"#utility.yul\":9261:9279   */\n      tag_192\n      tag_90\n      jump\t// in\n    tag_192:\n        /* \"#utility.yul\":9166:9281   */\n    tag_191:\n        /* \"#utility.yul\":9431:9432   */\n      dup3\n        /* \"#utility.yul\":9422:9429   */\n      dup3\n        /* \"#utility.yul\":9417:9433   */\n      sdiv\n        /* \"#utility.yul\":9414:9415   */\n      dup5\n        /* \"#utility.yul\":9411:9434   */\n      eq\n        /* \"#utility.yul\":9391:9392   */\n      dup4\n        /* \"#utility.yul\":9384:9393   */\n      iszero\n        /* \"#utility.yul\":9364:9448   */\n      or\n        /* \"#utility.yul\":9341:9481   */\n      tag_193\n      jumpi\n        /* \"#utility.yul\":9461:9479   */\n      tag_194\n      tag_90\n      jump\t// in\n    tag_194:\n        /* \"#utility.yul\":9341:9481   */\n    tag_193:\n        /* \"#utility.yul\":8979:9488   */\n      pop\n        /* \"#utility.yul\":8932:9488   */\n      swap3\n      swap2\n      pop\n      pop\n      jump\t// out\n        /* \"#utility.yul\":9494:9652   */\n    tag_100:\n        /* \"#utility.yul\":9634:9644   */\n      0x6d756c7469706c79000000000000000000000000000000000000000000000000\n        /* \"#utility.yul\":9630:9631   */\n      0x00\n        /* \"#utility.yul\":9622:9628   */\n      dup3\n        /* \"#utility.yul\":9618:9632   */\n      add\n        /* \"#utility.yul\":9611:9645   */\n      mstore\n        /* \"#utility.yul\":9494:9652   */\n      pop\n      jump\t// out\n        /* \"#utility.yul\":9658:10023   */\n    tag_101:\n        /* \"#utility.yul\":9800:9803   */\n      0x00\n        /* \"#utility.yul\":9821:9887   */\n      tag_197\n        /* \"#utility.yul\":9885:9886   */\n      0x08\n        /* \"#utility.yul\":9880:9883   */\n      dup4\n        /* \"#utility.yul\":9821:9887   */\n      tag_87\n      jump\t// in\n    tag_197:\n        /* \"#utility.yul\":9814:9887   */\n      swap2\n      pop\n        /* \"#utility.yul\":9896:9989   */\n      tag_198\n        /* \"#utility.yul\":9985:9988   */\n      dup3\n        /* \"#utility.yul\":9896:9989   */\n      tag_100\n      jump\t// in\n    tag_198:\n        /* \"#utility.yul\":10014:10016   */\n      0x20\n        /* \"#utility.yul\":10009:10012   */\n      dup3\n        /* \"#utility.yul\":10005:10017   */\n      add\n        /* \"#utility.yul\":9998:10017   */\n      swap1\n      pop\n        /* \"#utility.yul\":9658:10023   */\n      swap2\n      swap1\n      pop\n      jump\t// out\n        /* \"#utility.yul\":10029:10554   */\n    tag_70:\n        /* \"#utility.yul\":10221:10225   */\n      0x00\n        /* \"#utility.yul\":10259:10261   */\n      0x40\n        /* \"#utility.yul\":10248:10257   */\n      dup3\n        /* \"#utility.yul\":10244:10262   */\n      add\n        /* \"#utility.yul\":10236:10262   */\n      swap1\n      pop\n        /* \"#utility.yul\":10308:10317   */\n      dup2\n        /* \"#utility.yul\":10302:10306   */\n      dup2\n        /* \"#utility.yul\":10298:10318   */\n      sub\n        /* \"#utility.yul\":10294:10295   */\n      0x00\n        /* \"#utility.yul\":10283:10292   */\n      dup4\n        /* \"#utility.yul\":10279:10296   */\n      add\n        /* \"#utility.yul\":10272:10319   */\n      mstore\n        /* \"#utility.yul\":10336:10467   */\n      tag_200\n        /* \"#utility.yul\":10462:10466   */\n      dup2\n        /* \"#utility.yul\":10336:10467   */\n      tag_101\n      jump\t// in\n    tag_200:\n        /* \"#utility.yul\":10328:10467   */\n      swap1\n      pop\n        /* \"#utility.yul\":10477:10547   */\n      tag_201\n        /* \"#utility.yul\":10543:10545   */\n      0x20\n        /* \"#utility.yul\":10532:10541   */\n      dup4\n        /* \"#utility.yul\":10528:10546   */\n      add\n        /* \"#utility.yul\":10519:10525   */\n      dup5\n        /* \"#utility.yul\":10477:10547   */\n      tag_83\n      jump\t// in\n    tag_201:\n        /* \"#utility.yul\":10029:10554   */\n      swap3\n      swap2\n      pop\n      pop\n      jump\t// out\n        /* \"#utility.yul\":10560:10715   */\n    tag_102:\n        /* \"#utility.yul\":10700:10707   */\n      0x7265736574000000000000000000000000000000000000000000000000000000\n        /* \"#utility.yul\":10696:10697   */\n      0x00\n        /* \"#utility.yul\":10688:10694   */\n      dup3\n        /* \"#utility.yul\":10684:10698   */\n      add\n        /* \"#utility.yul\":10677:10708   */\n      mstore\n        /* \"#utility.yul\":10560:10715   */\n      pop\n      jump\t// out\n        /* \"#utility.yul\":10721:11086   */\n    tag_103:\n        /* \"#utility.yul\":10863:10866   */\n      0x00\n        /* \"#utility.yul\":10884:10950   */\n      tag_204\n        /* \"#utility.yul\":10948:10949   */\n      0x05\n        /* \"#utility.yul\":10943:10946   */\n      dup4\n        /* \"#utility.yul\":10884:10950   */\n      tag_87\n      jump\t// in\n    tag_204:\n        /* \"#utility.yul\":10877:10950   */\n      swap2\n      pop\n        /* \"#utility.yul\":10959:11052   */\n      tag_205\n        /* \"#utility.yul\":11048:11051   */\n      dup3\n        /* \"#utility.yul\":10959:11052   */\n      tag_102\n      jump\t// in\n    tag_205:\n        /* \"#utility.yul\":11077:11079   */\n      0x20\n        /* \"#utility.yul\":11072:11075   */\n      dup3\n        /* \"#utility.yul\":11068:11080   */\n      add\n        /* \"#utility.yul\":11061:11080   */\n      swap1\n      pop\n        /* \"#utility.yul\":10721:11086   */\n      swap2\n      swap1\n      pop\n      jump\t// out\n        /* \"#utility.yul\":11092:11177   */\n    tag_104:\n        /* \"#utility.yul\":11137:11144   */\n      0x00\n        /* \"#utility.yul\":11166:11171   */\n      dup2\n        /* \"#utility.yul\":11155:11171   */\n      swap1\n      pop\n        /* \"#utility.yul\":11092:11177   */\n      swap2\n      swap1\n      pop\n      jump\t// out\n        /* \"#utility.yul\":11183:11243   */\n    tag_105:\n        /* \"#utility.yul\":11211:11214   */\n      0x00\n        /* \"#utility.yul\":11232:11237   */\n      dup2\n        /* \"#utility.yul\":11225:11237   */\n      swap1\n      pop\n        /* \"#utility.yul\":11183:11243   */\n      swap2\n      swap1\n      pop\n      jump\t// out\n        /* \"#utility.yul\":11249:11405   */\n    tag_106:\n        /* \"#utility.yul\":11306:11315   */\n      0x00\n        /* \"#utility.yul\":11339:11399   */\n      tag_209\n        /* \"#utility.yul\":11356:11398   */\n      tag_210\n        /* \"#utility.yul\":11365:11397   */\n      tag_211\n        /* \"#utility.yul\":11391:11396   */\n      dup5\n        /* \"#utility.yul\":11365:11397   */\n      tag_104\n      jump\t// in\n    tag_211:\n        /* \"#utility.yul\":11356:11398   */\n      tag_105\n      jump\t// in\n    tag_210:\n        /* \"#utility.yul\":11339:11399   */\n      tag_80\n      jump\t// in\n    tag_209:\n        /* \"#utility.yul\":11326:11399   */\n      swap1\n      pop\n        /* \"#utility.yul\":11249:11405   */\n      swap2\n      swap1\n      pop\n      jump\t// out\n        /* \"#utility.yul\":11411:11556   */\n    tag_107:\n        /* \"#utility.yul\":11505:11549   */\n      tag_213\n        /* \"#utility.yul\":11543:11548   */\n      dup2\n        /* \"#utility.yul\":11505:11549   */\n      tag_106\n      jump\t// in\n    tag_213:\n        /* \"#utility.yul\":11500:11503   */\n      dup3\n        /* \"#utility.yul\":11493:11550   */\n      mstore\n        /* \"#utility.yul\":11411:11556   */\n      pop\n      pop\n      jump\t// out\n        /* \"#utility.yul\":11562:12105   */\n    tag_76:\n        /* \"#utility.yul\":11763:11767   */\n      0x00\n        /* \"#utility.yul\":11801:11803   */\n      0x40\n        /* \"#utility.yul\":11790:11799   */\n      dup3\n        /* \"#utility.yul\":11786:11804   */\n      add\n        /* \"#utility.yul\":11778:11804   */\n      swap1\n      pop\n        /* \"#utility.yul\":11850:11859   */\n      dup2\n        /* \"#utility.yul\":11844:11848   */\n      dup2\n        /* \"#utility.yul\":11840:11860   */\n      sub\n        /* \"#utility.yul\":11836:11837   */\n      0x00\n        /* \"#utility.yul\":11825:11834   */\n      dup4\n        /* \"#utility.yul\":11821:11838   */\n      add\n        /* \"#utility.yul\":11814:11861   */\n      mstore\n        /* \"#utility.yul\":11878:12009   */\n      tag_215\n        /* \"#utility.yul\":12004:12008   */\n      dup2\n        /* \"#utility.yul\":11878:12009   */\n      tag_103\n      jump\t// in\n    tag_215:\n        /* \"#utility.yul\":11870:12009   */\n      swap1\n      pop\n        /* \"#utility.yul\":12019:12098   */\n      tag_216\n        /* \"#utility.yul\":12094:12096   */\n      0x20\n        /* \"#utility.yul\":12083:12092   */\n      dup4\n        /* \"#utility.yul\":12079:12097   */\n      add\n        /* \"#utility.yul\":12070:12076   */\n      dup5\n        /* \"#utility.yul\":12019:12098   */\n      tag_107\n      jump\t// in\n    tag_216:\n        /* \"#utility.yul\":11562:12105   */\n      swap3\n      swap2\n      pop\n      pop\n      jump\t// out\n\n    auxdata: 0xa26469706673582212204a4bbbd2caddf33c2baeff93350ac1aed67d2963f3073ee3efabcd446c2ff7c964736f6c634300081e0033\n}\n","bytecode":{"linkReferences":{},"object":"6080604052348015600f57600080fd5b5033600160006101000a81548173ffffffffffffffffffffffffffffffffffffffff021916908373ffffffffffffffffffffffffffffffffffffffff160217905550610cf8806100606000396000f3fe608060405234801561001057600080fd5b506004361061007d5760003560e01c806399cdee0e1161005b57806399cdee0e146100d8578063c10ead3f146100f6578063c18b99f614610112578063d826f88f1461012e5761007d565b80636b668a431461008257806377321b631461009e578063797e7a48146100ba575b600080fd5b61009c600480360381019061009791906106a5565b610138565b005b6100b860048036038101906100b391906106a5565b61022e565b005b6100c2610324565b6040516100cf91906106f4565b60405180910390f35b6100e061032d565b6040516100ed9190610750565b60405180910390f35b610110600480360381019061010b91906106a5565b610353565b005b61012c600480360381019061012791906106a5565b61048c565b005b610136610582565b005b600160009054906101000a900473ffffffffffffffffffffffffffffffffffffffff1673ffffffffffffffffffffffffffffffffffffffff163373ffffffffffffffffffffffffffffffffffffffff16146101c8576040517f08c379a00000000000000000000000000000000000000000000000000000000081526004016101bf906107c8565b60405180910390fd5b80826101d49190610817565b6000819055503373ffffffffffffffffffffffffffffffffffffffff167f9381d7da0110305364b0c91faa430afcf0cd01c208ae823717a163d893df154160005460405161022291906108a7565b60405180910390a25050565b600160009054906101000a900473ffffffffffffffffffffffffffffffffffffffff1673ffffffffffffffffffffffffffffffffffffffff163373ffffffffffffffffffffffffffffffffffffffff16146102be576040517f08c379a00000000000000000000000000000000000000000000000000000000081526004016102b5906107c8565b60405180910390fd5b80826102ca91906108d5565b6000819055503373ffffffffffffffffffffffffffffffffffffffff167f9381d7da0110305364b0c91faa430afcf0cd01c208ae823717a163d893df15416000546040516103189190610964565b60405180910390a25050565b60008054905090565b600160009054906101000a900473ffffffffffffffffffffffffffffffffffffffff1681565b600160009054906101000a900473ffffffffffffffffffffffffffffffffffffffff1673ffffffffffffffffffffffffffffffffffffffff163373ffffffffffffffffffffffffffffffffffffffff16146103e3576040517f08c379a00000000000000000000000000000000000000000000000000000000081526004016103da906107c8565b60405180910390fd5b60008103610426576040517f08c379a000000000000000000000000000000000000000000000000000000000815260040161041d906109de565b60405180910390fd5b80826104329190610a2d565b6000819055503373ffffffffffffffffffffffffffffffffffffffff167f9381d7da0110305364b0c91faa430afcf0cd01c208ae823717a163d893df15416000546040516104809190610ae3565b60405180910390a25050565b600160009054906101000a900473ffffffffffffffffffffffffffffffffffffffff1673ffffffffffffffffffffffffffffffffffffffff163373ffffffffffffffffffffffffffffffffffffffff161461051c576040517f08c379a0000000000000000000000000000000000000000000000000000000008152600401610513906107c8565b60405180910390fd5b80826105289190610b11565b6000819055503373ffffffffffffffffffffffffffffffffffffffff167f9381d7da0110305364b0c91faa430afcf0cd01c208ae823717a163d893df15416000546040516105769190610bd5565b60405180910390a25050565b600160009054906101000a900473ffffffffffffffffffffffffffffffffffffffff1673ffffffffffffffffffffffffffffffffffffffff163373ffffffffffffffffffffffffffffffffffffffff1614610612576040517f08c379a0000000000000000000000000000000000000000000000000000000008152600401610609906107c8565b60405180910390fd5b600080819055503373ffffffffffffffffffffffffffffffffffffffff167f9381d7da0110305364b0c91faa430afcf0cd01c208ae823717a163d893df154160006040516106609190610c94565b60405180910390a2565b600080fd5b6000819050919050565b6106828161066f565b811461068d57600080fd5b50565b60008135905061069f81610679565b92915050565b600080604083850312156106bc576106bb61066a565b5b60006106ca85828601610690565b92505060206106db85828601610690565b9150509250929050565b6106ee8161066f565b82525050565b600060208201905061070960008301846106e5565b92915050565b600073ffffffffffffffffffffffffffffffffffffffff82169050919050565b600061073a8261070f565b9050919050565b61074a8161072f565b82525050565b60006020820190506107656000830184610741565b92915050565b600082825260208201905092915050565b7f43616c6c6572206973206e6f7420746865206f776e65722e0000000000000000600082015250565b60006107b260188361076b565b91506107bd8261077c565b602082019050919050565b600060208201905081810360008301526107e1816107a5565b9050919050565b7f4e487b7100000000000000000000000000000000000000000000000000000000600052601160045260246000fd5b60006108228261066f565b915061082d8361066f565b925082820190508281121560008312168382126000841215161715610855576108546107e8565b5b92915050565b7f6164640000000000000000000000000000000000000000000000000000000000600082015250565b600061089160038361076b565b915061089c8261085b565b602082019050919050565b600060408201905081810360008301526108c081610884565b90506108cf60208301846106e5565b92915050565b60006108e08261066f565b91506108eb8361066f565b9250828203905081811260008412168282136000851215161715610912576109116107e8565b5b92915050565b7f7375627472616374000000000000000000000000000000000000000000000000600082015250565b600061094e60088361076b565b915061095982610918565b602082019050919050565b6000604082019050818103600083015261097d81610941565b905061098c60208301846106e5565b92915050565b7f43616e6e6f7420646976696465206279207a65726f2e00000000000000000000600082015250565b60006109c860168361076b565b91506109d382610992565b602082019050919050565b600060208201905081810360008301526109f7816109bb565b9050919050565b7f4e487b7100000000000000000000000000000000000000000000000000000000600052601260045260246000fd5b6000610a388261066f565b9150610a438361066f565b925082610a5357610a526109fe565b5b600160000383147f800000000000000000000000000000000000000000000000000000000000000083141615610a8c57610a8b6107e8565b5b828205905092915050565b7f6469766964650000000000000000000000000000000000000000000000000000600082015250565b6000610acd60068361076b565b9150610ad882610a97565b602082019050919050565b60006040820190508181036000830152610afc81610ac0565b9050610b0b60208301846106e5565b92915050565b6000610b1c8261066f565b9150610b278361066f565b9250828202610b358161066f565b91507f80000000000000000000000000000000000000000000000000000000000000008414600084121615610b6d57610b6c6107e8565b5b8282058414831517610b8257610b816107e8565b5b5092915050565b7f6d756c7469706c79000000000000000000000000000000000000000000000000600082015250565b6000610bbf60088361076b565b9150610bca82610b89565b602082019050919050565b60006040820190508181036000830152610bee81610bb2565b9050610bfd60208301846106e5565b92915050565b7f7265736574000000000000000000000000000000000000000000000000000000600082015250565b6000610c3960058361076b565b9150610c4482610c03565b602082019050919050565b6000819050919050565b6000819050919050565b6000610c7e610c79610c7484610c4f565b610c59565b61066f565b9050919050565b610c8e81610c63565b82525050565b60006040820190508181036000830152610cad81610c2c565b9050610cbc6020830184610c85565b9291505056fea26469706673582212204a4bbbd2caddf33c2baeff93350ac1aed67d2963f3073ee3efabcd446c2ff7c964736f6c634300081e0033","opcodes":"PUSH1 0x80 PUSH1 0x40 MSTORE CALLVALUE DUP1 ISZERO PUSH1 0xF JUMPI PUSH1 0x0 DUP1 REVERT JUMPDEST POP CALLER PUSH1 0x1 PUSH1 0x0 PUSH2 0x100 EXP DUP2 SLOAD DUP2 PUSH20 0xFFFFFFFFFFFFFFFFFFFFFFFFFFFFFFFFFFFFFFFF MUL NOT AND SWAP1 DUP4 PUSH20 0xFFFFFFFFFFFFFFFFFFFFFFFFFFFFFFFFFFFFFFFF AND MUL OR SWAP1 SSTORE POP PUSH2 0xCF8 DUP1 PUSH2 0x60 PUSH1 0x0 CODECOPY PUSH1 0x0 RETURN INVALID PUSH1 0x80 PUSH1 0x40 MSTORE CALLVALUE DUP1 ISZERO PUSH2 0x10 JUMPI PUSH1 0x0 DUP1 REVERT JUMPDEST POP PUSH1 0x4 CALLDATASIZE LT PUSH2 0x7D JUMPI PUSH1 0x0 CALLDATALOAD PUSH1 0xE0 SHR DUP1 PUSH4 0x99CDEE0E GT PUSH2 0x5B JUMPI DUP1 PUSH4 0x99CDEE0E EQ PUSH2 0xD8 JUMPI DUP1 PUSH4 0xC10EAD3F EQ PUSH2 0xF6 JUMPI DUP1 PUSH4 0xC18B99F6 EQ PUSH2 0x112 JUMPI DUP1 PUSH4 0xD826F88F EQ PUSH2 0x12E JUMPI PUSH2 0x7D JUMP JUMPDEST DUP1 PUSH4 0x6B668A43 EQ PUSH2 0x82 JUMPI DUP1 PUSH4 0x77321B63 EQ PUSH2 0x9E JUMPI DUP1 PUSH4 0x797E7A48 EQ PUSH2 0xBA JUMPI JUMPDEST PUSH1 0x0 DUP1 REVERT JUMPDEST PUSH2 0x9C PUSH1 0x4 DUP1 CALLDATASIZE SUB DUP2 ADD SWAP1 PUSH2 0x97 SWAP2 SWAP1 PUSH2 0x6A5 JUMP JUMPDEST PUSH2 0x138 JUMP JUMPDEST STOP JUMPDEST PUSH2 0xB8 PUSH1 0x4 DUP1 CALLDATASIZE SUB DUP2 ADD SWAP1 PUSH2 0xB3 SWAP2 SWAP1 PUSH2 0x6A5 JUMP JUMPDEST PUSH2 0x22E JUMP JUMPDEST STOP JUMPDEST PUSH2 0xC2 PUSH2 0x324 JUMP JUMPDEST PUSH1 0x40 MLOAD PUSH2 0xCF SWAP2 SWAP1 PUSH2 0x6F4 JUMP JUMPDEST PUSH1 0x40 MLOAD DUP1 SWAP2 SUB SWAP1 RETURN JUMPDEST PUSH2 0xE0 PUSH2 0x32D JUMP JUMPDEST PUSH1 0x40 MLOAD PUSH2 0xED SWAP2 SWAP1 PUSH2 0x750 JUMP JUMPDEST PUSH1 0x40 MLOAD DUP1 SWAP2 SUB SWAP1 RETURN JUMPDEST PUSH2 0x110 PUSH1 0x4 DUP1 CALLDATASIZE SUB DUP2 ADD SWAP1 PUSH2 0x10B SWAP2 SWAP1 PUSH2 0x6A5 JUMP JUMPDEST PUSH2 0x353 JUMP JUMPDEST STOP JUMPDEST PUSH2 0x12C PUSH1 0x4 DUP1 CALLDATASIZE SUB DUP2 ADD SWAP1 PUSH2 0x127 SWAP2 SWAP1 PUSH2 0x6A5 JUMP JUMPDEST PUSH2 0x48C JUMP JUMPDEST STOP JUMPDEST PUSH2 0x136 PUSH2 0x582 JUMP JUMPDEST STOP JUMPDEST PUSH1 0x1 PUSH1 0x0 SWAP1 SLOAD SWAP1 PUSH2 0x100 EXP SWAP1 DIV PUSH20 0xFFFFFFFFFFFFFFFFFFFFFFFFFFFFFFFFFFFFFFFF AND PUSH20 0xFFFFFFFFFFFFFFFFFFFFFFFFFFFFFFFFFFFFFFFF AND CALLER PUSH20 0xFFFFFFFFFFFFFFFFFFFFFFFFFFFFFFFFFFFFFFFF AND EQ PUSH2 0x1C8 JUMPI PUSH1 0x40 MLOAD PUSH32 0x8C379A000000000000000000000000000000000000000000000000000000000 DUP2 MSTORE PUSH1 0x4 ADD PUSH2 0x1BF SWAP1 PUSH2 0x7C8 JUMP JUMPDEST PUSH1 0x40 MLOAD DUP1 SWAP2 SUB SWAP1 REVERT JUMPDEST DUP1 DUP3 PUSH2 0x1D4 SWAP2 SWAP1 PUSH2 0x817 JUMP JUMPDEST PUSH1 0x0 DUP2 SWAP1 SSTORE POP CALLER PUSH20 0xFFFFFFFFFFFFFFFFFFFFFFFFFFFFFFFFFFFFFFFF AND PUSH32 0x9381D7DA0110305364B0C91FAA430AFCF0CD01C208AE823717A163D893DF1541 PUSH1 0x0 SLOAD PUSH1 0x40 MLOAD PUSH2 0x222 SWAP2 SWAP1 PUSH2 0x8A7 JUMP JUMPDEST PUSH1 0x40 MLOAD DUP1 SWAP2 SUB SWAP1 LOG2 POP POP JUMP JUMPDEST PUSH1 0x1 PUSH1 0x0 SWAP1 SLOAD SWAP1 PUSH2 0x100 EXP SWAP1 DIV PUSH20 0xFFFFFFFFFFFFFFFFFFFFFFFFFFFFFFFFFFFFFFFF AND PUSH20 0xFFFFFFFFFFFFFFFFFFFFFFFFFFFFFFFFFFFFFFFF AND CALLER PUSH20 0xFFFFFFFFFFFFFFFFFFFFFFFFFFFFFFFFFFFFFFFF AND EQ PUSH2 0x2BE JUMPI PUSH1 0x40 MLOAD PUSH32 0x8C379A000000000000000000000000000000000000000000000000000000000 DUP2 MSTORE PUSH1 0x4 ADD PUSH2 0x2B5 SWAP1 PUSH2 0x7C8 JUMP JUMPDEST PUSH1 0x40 MLOAD DUP1 SWAP2 SUB SWAP1 REVERT JUMPDEST DUP1 DUP3 PUSH2 0x2CA SWAP2 SWAP1 PUSH2 0x8D5 JUMP JUMPDEST PUSH1 0x0 DUP2 SWAP1 SSTORE POP CALLER PUSH20 0xFFFFFFFFFFFFFFFFFFFFFFFFFFFFFFFFFFFFFFFF AND PUSH32 0x9381D7DA0110305364B0C91FAA430AFCF0CD01C208AE823717A163D893DF1541 PUSH1 0x0 SLOAD PUSH1 0x40 MLOAD PUSH2 0x318 SWAP2 SWAP1 PUSH2 0x964 JUMP JUMPDEST PUSH1 0x40 MLOAD DUP1 SWAP2 SUB SWAP1 LOG2 POP POP JUMP JUMPDEST PUSH1 0x0 DUP1 SLOAD SWAP1 POP SWAP1 JUMP JUMPDEST PUSH1 0x1 PUSH1 0x0 SWAP1 SLOAD SWAP1 PUSH2 0x100 EXP SWAP1 DIV PUSH20 0xFFFFFFFFFFFFFFFFFFFFFFFFFFFFFFFFFFFFFFFF AND DUP2 JUMP JUMPDEST PUSH1 0x1 PUSH1 0x0 SWAP1 SLOAD SWAP1 PUSH2 0x100 EXP SWAP1 DIV PUSH20 0xFFFFFFFFFFFFFFFFFFFFFFFFFFFFFFFFFFFFFFFF AND PUSH20 0xFFFFFFFFFFFFFFFFFFFFFFFFFFFFFFFFFFFFFFFF AND CALLER PUSH20 0xFFFFFFFFFFFFFFFFFFFFFFFFFFFFFFFFFFFFFFFF AND EQ PUSH2 0x3E3 JUMPI PUSH1 0x40 MLOAD PUSH32 0x8C379A000000000000000000000000000000000000000000000000000000000 DUP2 MSTORE PUSH1 0x4 ADD PUSH2 0x3DA SWAP1 PUSH2 0x7C8 JUMP JUMPDEST PUSH1 0x40 MLOAD DUP1 SWAP2 SUB SWAP1 REVERT JUMPDEST PUSH1 0x0 DUP2 SUB PUSH2 0x426 JUMPI PUSH1 0x40 MLOAD PUSH32 0x8C379A000000000000000000000000000000000000000000000000000000000 DUP2 MSTORE PUSH1 0x4 ADD PUSH2 0x41D SWAP1 PUSH2 0x9DE JUMP JUMPDEST PUSH1 0x40 MLOAD DUP1 SWAP2 SUB SWAP1 REVERT JUMPDEST DUP1 DUP3 PUSH2 0x432 SWAP2 SWAP1 PUSH2 0xA2D JUMP JUMPDEST PUSH1 0x0 DUP2 SWAP1 SSTORE POP CALLER PUSH20 0xFFFFFFFFFFFFFFFFFFFFFFFFFFFFFFFFFFFFFFFF AND PUSH32 0x9381D7DA0110305364B0C91FAA430AFCF0CD01C208AE823717A163D893DF1541 PUSH1 0x0 SLOAD PUSH1 0x40 MLOAD PUSH2 0x480 SWAP2 SWAP1 PUSH2 0xAE3 JUMP JUMPDEST PUSH1 0x40 MLOAD DUP1 SWAP2 SUB SWAP1 LOG2 POP POP JUMP JUMPDEST PUSH1 0x1 PUSH1 0x0 SWAP1 SLOAD SWAP1 PUSH2 0x100 EXP SWAP1 DIV PUSH20 0xFFFFFFFFFFFFFFFFFFFFFFFFFFFFFFFFFFFFFFFF AND PUSH20 0xFFFFFFFFFFFFFFFFFFFFFFFFFFFFFFFFFFFFFFFF AND CALLER PUSH20 0xFFFFFFFFFFFFFFFFFFFFFFFFFFFFFFFFFFFFFFFF AND EQ PUSH2 0x51C JUMPI PUSH1 0x40 MLOAD PUSH32 0x8C379A000000000000000000000000000000000000000000000000000000000 DUP2 MSTORE PUSH1 0x4 ADD PUSH2 0x513 SWAP1 PUSH2 0x7C8 JUMP JUMPDEST PUSH1 0x40 MLOAD DUP1 SWAP2 SUB SWAP1 REVERT JUMPDEST DUP1 DUP3 PUSH2 0x528 SWAP2 SWAP1 PUSH2 0xB11 JUMP JUMPDEST PUSH1 0x0 DUP2 SWAP1 SSTORE POP CALLER PUSH20 0xFFFFFFFFFFFFFFFFFFFFFFFFFFFFFFFFFFFFFFFF AND PUSH32 0x9381D7DA0110305364B0C91FAA430AFCF0CD01C208AE823717A163D893DF1541 PUSH1 0x0 SLOAD PUSH1 0x40 MLOAD PUSH2 0x576 SWAP2 SWAP1 PUSH2 0xBD5 JUMP JUMPDEST PUSH1 0x40 MLOAD DUP1 SWAP2 SUB SWAP1 LOG2 POP POP JUMP JUMPDEST PUSH1 0x1 PUSH1 0x0 SWAP1 SLOAD SWAP1 PUSH2 0x100 EXP SWAP1 DIV PUSH20 0xFFFFFFFFFFFFFFFFFFFFFFFFFFFFFFFFFFFFFFFF AND PUSH20 0xFFFFFFFFFFFFFFFFFFFFFFFFFFFFFFFFFFFFFFFF AND CALLER PUSH20 0xFFFFFFFFFFFFFFFFFFFFFFFFFFFFFFFFFFFFFFFF AND EQ PUSH2 0x612 JUMPI PUSH1 0x40 MLOAD PUSH32 0x8C379A000000000000000000000000000000000000000000000000000000000 DUP2 MSTORE PUSH1 0x4 ADD PUSH2 0x609 SWAP1 PUSH2 0x7C8 JUMP JUMPDEST PUSH1 0x40 MLOAD DUP1 SWAP2 SUB SWAP1 REVERT JUMPDEST PUSH1 0x0 DUP1 DUP2 SWAP1 SSTORE POP CALLER PUSH20 0xFFFFFFFFFFFFFFFFFFFFFFFFFFFFFFFFFFFFFFFF AND PUSH32 0x9381D7DA0110305364B0C91FAA430AFCF0CD01C208AE823717A163D893DF1541 PUSH1 0x0 PUSH1 0x40 MLOAD PUSH2 0x660 SWAP2 SWAP1 PUSH2 0xC94 JUMP JUMPDEST PUSH1 0x40 MLOAD DUP1 SWAP2 SUB SWAP1 LOG2 JUMP JUMPDEST PUSH1 0x0 DUP1 REVERT JUMPDEST PUSH1 0x0 DUP2 SWAP1 POP SWAP2 SWAP1 POP JUMP JUMPDEST PUSH2 0x682 DUP2 PUSH2 0x66F JUMP JUMPDEST DUP2 EQ PUSH2 0x68D JUMPI PUSH1 0x0 DUP1 REVERT JUMPDEST POP JUMP JUMPDEST PUSH1 0x0 DUP2 CALLDATALOAD SWAP1 POP PUSH2 0x69F DUP2 PUSH2 0x679 JUMP JUMPDEST SWAP3 SWAP2 POP POP JUMP JUMPDEST PUSH1 0x0 DUP1 PUSH1 0x40 DUP4 DUP6 SUB SLT ISZERO PUSH2 0x6BC JUMPI PUSH2 0x6BB PUSH2 0x66A JUMP JUMPDEST JUMPDEST PUSH1 0x0 PUSH2 0x6CA DUP6 DUP3 DUP7 ADD PUSH2 0x690 JUMP JUMPDEST SWAP3 POP POP PUSH1 0x20 PUSH2 0x6DB DUP6 DUP3 DUP7 ADD PUSH2 0x690 JUMP JUMPDEST SWAP2 POP POP SWAP3 POP SWAP3 SWAP1 POP JUMP JUMPDEST PUSH2 0x6EE DUP2 PUSH2 0x66F JUMP JUMPDEST DUP3 MSTORE POP POP JUMP JUMPDEST PUSH1 0x0 PUSH1 0x20 DUP3 ADD SWAP1 POP PUSH2 0x709 PUSH1 0x0 DUP4 ADD DUP5 PUSH2 0x6E5 JUMP JUMPDEST SWAP3 SWAP2 POP POP JUMP JUMPDEST PUSH1 0x0 PUSH20 0xFFFFFFFFFFFFFFFFFFFFFFFFFFFFFFFFFFFFFFFF DUP3 AND SWAP1 POP SWAP2 SWAP1 POP JUMP JUMPDEST PUSH1 0x0 PUSH2 0x73A DUP3 PUSH2 0x70F JUMP JUMPDEST SWAP1 POP SWAP2 SWAP1 POP JUMP JUMPDEST PUSH2 0x74A DUP2 PUSH2 0x72F JUMP JUMPDEST DUP3 MSTORE POP POP JUMP JUMPDEST PUSH1 0x0 PUSH1 0x20 DUP3 ADD SWAP1 POP PUSH2 0x765 PUSH1 0x0 DUP4 ADD DUP5 PUSH2 0x741 JUMP JUMPDEST SWAP3 SWAP2 POP POP JUMP JUMPDEST PUSH1 0x0 DUP3 DUP3 MSTORE PUSH1 0x20 DUP3 ADD SWAP1 POP SWAP3 SWAP2 POP POP JUMP JUMPDEST PUSH32 0x43616C6C6572206973206E6F7420746865206F776E65722E0000000000000000 PUSH1 0x0 DUP3 ADD MSTORE POP JUMP JUMPDEST PUSH1 0x0 PUSH2 0x7B2 PUSH1 0x18 DUP4 PUSH2 0x76B JUMP JUMPDEST SWAP2 POP PUSH2 0x7BD DUP3 PUSH2 0x77C JUMP JUMPDEST PUSH1 0x20 DUP3 ADD SWAP1 POP SWAP2 SWAP1 POP JUMP JUMPDEST PUSH1 0x0 PUSH1 0x20 DUP3 ADD SWAP1 POP DUP2 DUP2 SUB PUSH1 0x0 DUP4 ADD MSTORE PUSH2 0x7E1 DUP2 PUSH2 0x7A5 JUMP JUMPDEST SWAP1 POP SWAP2 SWAP1 POP JUMP JUMPDEST PUSH32 0x4E487B7100000000000000000000000000000000000000000000000000000000 PUSH1 0x0 MSTORE PUSH1 0x11 PUSH1 0x4 MSTORE PUSH1 0x24 PUSH1 0x0 REVERT JUMPDEST PUSH1 0x0 PUSH2 0x822 DUP3 PUSH2 0x66F JUMP JUMPDEST SWAP2 POP PUSH2 0x82D DUP4 PUSH2 0x66F JUMP JUMPDEST SWAP3 POP DUP3 DUP3 ADD SWAP1 POP DUP3 DUP2 SLT ISZERO PUSH1 0x0 DUP4 SLT AND DUP4 DUP3 SLT PUSH1 0x0 DUP5 SLT ISZERO AND OR ISZERO PUSH2 0x855 JUMPI PUSH2 0x854 PUSH2 0x7E8 JUMP JUMPDEST JUMPDEST SWAP3 SWAP2 POP POP JUMP JUMPDEST PUSH32 0x6164640000000000000000000000000000000000000000000000000000000000 PUSH1 0x0 DUP3 ADD MSTORE POP JUMP JUMPDEST PUSH1 0x0 PUSH2 0x891 PUSH1 0x3 DUP4 PUSH2 0x76B JUMP JUMPDEST SWAP2 POP PUSH2 0x89C DUP3 PUSH2 0x85B JUMP JUMPDEST PUSH1 0x20 DUP3 ADD SWAP1 POP SWAP2 SWAP1 POP JUMP JUMPDEST PUSH1 0x0 PUSH1 0x40 DUP3 ADD SWAP1 POP DUP2 DUP2 SUB PUSH1 0x0 DUP4 ADD MSTORE PUSH2 0x8C0 DUP2 PUSH2 0x884 JUMP JUMPDEST SWAP1 POP PUSH2 0x8CF PUSH1 0x20 DUP4 ADD DUP5 PUSH2 0x6E5 JUMP JUMPDEST SWAP3 SWAP2 POP POP JUMP JUMPDEST PUSH1 0x0 PUSH2 0x8E0 DUP3 PUSH2 0x66F JUMP JUMPDEST SWAP2 POP PUSH2 0x8EB DUP4 PUSH2 0x66F JUMP JUMPDEST SWAP3 POP DUP3 DUP3 SUB SWAP1 POP DUP2 DUP2 SLT PUSH1 0x0 DUP5 SLT AND DUP3 DUP3 SGT PUSH1 0x0 DUP6 SLT ISZERO AND OR ISZERO PUSH2 0x912 JUMPI PUSH2 0x911 PUSH2 0x7E8 JUMP JUMPDEST JUMPDEST SWAP3 SWAP2 POP POP JUMP JUMPDEST PUSH32 0x7375627472616374000000000000000000000000000000000000000000000000 PUSH1 0x0 DUP3 ADD MSTORE POP JUMP JUMPDEST PUSH1 0x0 PUSH2 0x94E PUSH1 0x8 DUP4 PUSH2 0x76B JUMP JUMPDEST SWAP2 POP PUSH2 0x959 DUP3 PUSH2 0x918 JUMP JUMPDEST PUSH1 0x20 DUP3 ADD SWAP1 POP SWAP2 SWAP1 POP JUMP JUMPDEST PUSH1 0x0 PUSH1 0x40 DUP3 ADD SWAP1 POP DUP2 DUP2 SUB PUSH1 0x0 DUP4 ADD MSTORE PUSH2 0x97D DUP2 PUSH2 0x941 JUMP JUMPDEST SWAP1 POP PUSH2 0x98C PUSH1 0x20 DUP4 ADD DUP5 PUSH2 0x6E5 JUMP JUMPDEST SWAP3 SWAP2 POP POP JUMP JUMPDEST PUSH32 0x43616E6E6F7420646976696465206279207A65726F2E00000000000000000000 PUSH1 0x0 DUP3 ADD MSTORE POP JUMP JUMPDEST PUSH1 0x0 PUSH2 0x9C8 PUSH1 0x16 DUP4 PUSH2 0x76B JUMP JUMPDEST SWAP2 POP PUSH2 0x9D3 DUP3 PUSH2 0x992 JUMP JUMPDEST PUSH1 0x20 DUP3 ADD SWAP1 POP SWAP2 SWAP1 POP JUMP JUMPDEST PUSH1 0x0 PUSH1 0x20 DUP3 ADD SWAP1 POP DUP2 DUP2 SUB PUSH1 0x0 DUP4 ADD MSTORE PUSH2 0x9F7 DUP2 PUSH2 0x9BB JUMP JUMPDEST SWAP1 POP SWAP2 SWAP1 POP JUMP JUMPDEST PUSH32 0x4E487B7100000000000000000000000000000000000000000000000000000000 PUSH1 0x0 MSTORE PUSH1 0x12 PUSH1 0x4 MSTORE PUSH1 0x24 PUSH1 0x0 REVERT JUMPDEST PUSH1 0x0 PUSH2 0xA38 DUP3 PUSH2 0x66F JUMP JUMPDEST SWAP2 POP PUSH2 0xA43 DUP4 PUSH2 0x66F JUMP JUMPDEST SWAP3 POP DUP3 PUSH2 0xA53 JUMPI PUSH2 0xA52 PUSH2 0x9FE JUMP JUMPDEST JUMPDEST PUSH1 0x1 PUSH1 0x0 SUB DUP4 EQ PUSH32 0x8000000000000000000000000000000000000000000000000000000000000000 DUP4 EQ AND ISZERO PUSH2 0xA8C JUMPI PUSH2 0xA8B PUSH2 0x7E8 JUMP JUMPDEST JUMPDEST DUP3 DUP3 SDIV SWAP1 POP SWAP3 SWAP2 POP POP JUMP JUMPDEST PUSH32 0x6469766964650000000000000000000000000000000000000000000000000000 PUSH1 0x0 DUP3 ADD MSTORE POP JUMP JUMPDEST PUSH1 0x0 PUSH2 0xACD PUSH1 0x6 DUP4 PUSH2 0x76B JUMP JUMPDEST SWAP2 POP PUSH2 0xAD8 DUP3 PUSH2 0xA97 JUMP JUMPDEST PUSH1 0x20 DUP3 ADD SWAP1 POP SWAP2 SWAP1 POP JUMP JUMPDEST PUSH1 0x0 PUSH1 0x40 DUP3 ADD SWAP1 POP DUP2 DUP2 SUB PUSH1 0x0 DUP4 ADD MSTORE PUSH2 0xAFC DUP2 PUSH2 0xAC0 JUMP JUMPDEST SWAP1 POP PUSH2 0xB0B PUSH1 0x20 DUP4 ADD DUP5 PUSH2 0x6E5 JUMP JUMPDEST SWAP3 SWAP2 POP POP JUMP JUMPDEST PUSH1 0x0 PUSH2 0xB1C DUP3 PUSH2 0x66F JUMP JUMPDEST SWAP2 POP PUSH2 0xB27 DUP4 PUSH2 0x66F JUMP JUMPDEST SWAP3 POP DUP3 DUP3 MUL PUSH2 0xB35 DUP2 PUSH2 0x66F JUMP JUMPDEST SWAP2 POP PUSH32 0x8000000000000000000000000000000000000000000000000000000000000000 DUP5 EQ PUSH1 0x0 DUP5 SLT AND ISZERO PUSH2 0xB6D JUMPI PUSH2 0xB6C PUSH2 0x7E8 JUMP JUMPDEST JUMPDEST DUP3 DUP3 SDIV DUP5 EQ DUP4 ISZERO OR PUSH2 0xB82 JUMPI PUSH2 0xB81 PUSH2 0x7E8 JUMP JUMPDEST JUMPDEST POP SWAP3 SWAP2 POP POP JUMP JUMPDEST PUSH32 0x6D756C7469706C79000000000000000000000000000000000000000000000000 PUSH1 0x0 DUP3 ADD MSTORE POP JUMP JUMPDEST PUSH1 0x0 PUSH2 0xBBF PUSH1 0x8 DUP4 PUSH2 0x76B JUMP JUMPDEST SWAP2 POP PUSH2 0xBCA DUP3 PUSH2 0xB89 JUMP JUMPDEST PUSH1 0x20 DUP3 ADD SWAP1 POP SWAP2 SWAP1 POP JUMP JUMPDEST PUSH1 0x0 PUSH1 0x40 DUP3 ADD SWAP1 POP DUP2 DUP2 SUB PUSH1 0x0 DUP4 ADD MSTORE PUSH2 0xBEE DUP2 PUSH2 0xBB2 JUMP JUMPDEST SWAP1 POP PUSH2 0xBFD PUSH1 0x20 DUP4 ADD DUP5 PUSH2 0x6E5 JUMP JUMPDEST SWAP3 SWAP2 POP POP JUMP JUMPDEST PUSH32 0x7265736574000000000000000000000000000000000000000000000000000000 PUSH1 0x0 DUP3 ADD MSTORE POP JUMP JUMPDEST PUSH1 0x0 PUSH2 0xC39 PUSH1 0x5 DUP4 PUSH2 0x76B JUMP JUMPDEST SWAP2 POP PUSH2 0xC44 DUP3 PUSH2 0xC03 JUMP JUMPDEST PUSH1 0x20 DUP3 ADD SWAP1 POP SWAP2 SWAP1 POP JUMP JUMPDEST PUSH1 0x0 DUP2 SWAP1 POP SWAP2 SWAP1 POP JUMP JUMPDEST PUSH1 0x0 DUP2 SWAP1 POP SWAP2 SWAP1 POP JUMP JUMPDEST PUSH1 0x0 PUSH2 0xC7E PUSH2 0xC79 PUSH2 0xC74 DUP5 PUSH2 0xC4F JUMP JUMPDEST PUSH2 0xC59 JUMP JUMPDEST PUSH2 0x66F JUMP JUMPDEST SWAP1 POP SWAP2 SWAP1 POP JUMP JUMPDEST PUSH2 0xC8E DUP2 PUSH2 0xC63 JUMP JUMPDEST DUP3 MSTORE POP POP JUMP JUMPDEST PUSH1 0x0 PUSH1 0x40 DUP3 ADD SWAP1 POP DUP2 DUP2 SUB PUSH1 0x0 DUP4 ADD MSTORE PUSH2 0xCAD DUP2 PUSH2 0xC2C JUMP JUMPDEST SWAP1 POP PUSH2 0xCBC PUSH1 0x20 DUP4 ADD DUP5 PUSH2 0xC85 JUMP JUMPDEST SWAP3 SWAP2 POP POP JUMP INVALID LOG2 PUSH5 0x6970667358 0x22 SLT KECCAK256 BLOBBASEFEE 0x4B 0xBB 0xD2 0xCA 0xDD RETURN EXTCODECOPY 0x2B 0xAE SELFDESTRUCT SWAP4 CALLDATALOAD EXP 0xC1 0xAE 0xD6 PUSH30 0x2963F3073EE3EFABCD446C2FF7C964736F6C634300081E00330000000000 "},"gasEstimates":{"creation":{"codeDepositCost":"664000","executionCost":"24962","totalCost":"688962"},"external":{"addTwo(int256,int256)":"infinite","diviTwo(int256,int256)":"infinite","getRes()":"2482","multiTwo(int256,int256)":"infinite","own()":"2514","reset()":"10067","subTwo(int256,int256)":"infinite"}},"methodIdentifiers":{"addTwo(int256,int256)":"6b668a43","diviTwo(int256,int256)":"c10ead3f","getRes()":"797e7a48","multiTwo(int256,int256)":"c18b99f6","own()":"99cdee0e","reset()":"d826f88f","subTwo(int256,int256)":"77321b63"}},"storageLayout":{"storage":[{"astId":3,"contract":"Calcu.sol:Calcu","label":"res","offset":0,"slot":"0","type":"t_int256"},{"astId":5,"contract":"Calcu.sol:Calcu","label":"own","offset":0,"slot":"1","type":"t_address"}],"types":{"t_address":{"encoding":"inplace","label":"address","numberOfBytes":"20"},"t_int256":{"encoding":"inplace","label":"int256","numberOfBytes":"32"}}},"transientStorageLayout":{"storage":[],"types":null},"userdoc":{"kind":"user","methods":{},"version":1}}