{
  "contractName": "Calcu",
  "abi": [
    {
      "inputs": [],
      "stateMutability": "nonpayable",
      "type": "constructor"
    },
    {
      "anonymous": false,
      "inputs": [
        {
          "indexed": true,
          "internalType": "address",
          "name": "sender",
          "type": "address"
        },
        {
          "indexed": false,
          "internalType": "string",
          "name": "action",
          "type": "string"
        },
        {
          "indexed": false,
          "internalType": "int256",
          "name": "num",
          "type": "int256"
        }
      ],
      "name": "Calculation",
      "type": "event"
    },
    {
      "inputs": [],
      "name": "own",
      "outputs": [
        {
          "internalType": "address",
          "name": "",
          "type": "address"
        }
      ],
      "stateMutability": "view",
      "type": "function",
      "constant": true
    },
    {
      "inputs": [
        {
          "internalType": "int256",
          "name": "_a",
          "type": "int256"
        },
        {
          "internalType": "int256",
          "name": "_b",
          "type": "int256"
        }
      ],
      "name": "addTwo",
      "outputs": [],
      "stateMutability": "nonpayable",
      "type": "function"
    },
    {
      "inputs": [
        {
          "internalType": "int256",
          "name": "_a",
          "type": "int256"
        },
        {
          "internalType": "int256",
          "name": "_b",
          "type": "int256"
        }
      ],
      "name": "subTwo",
      "outputs": [],
      "stateMutability": "nonpayable",
      "type": "function"
    },
    {
      "inputs": [
        {
          "internalType": "int256",
          "name": "_a",
          "type": "int256"
        },
        {
          "internalType": "int256",
          "name": "_b",
          "type": "int256"
        }
      ],
      "name": "multiTwo",
      "outputs": [],
      "stateMutability": "nonpayable",
      "type": "function"
    },
    {
      "inputs": [
        {
          "internalType": "int256",
          "name": "_a",
          "type": "int256"
        },
        {
          "internalType": "int256",
          "name": "_b",
          "type": "int256"
        }
      ],
      "name": "diviTwo",
      "outputs": [],
      "stateMutability": "nonpayable",
      "type": "function"
    },
    {
      "inputs": [],
      "name": "getRes",
      "outputs": [
        {
          "internalType": "int256",
          "name": "",
          "type": "int256"
        }
      ],
      "stateMutability": "view",
      "type": "function",
      "constant": true
    },
    {
      "inputs": [],
      "name": "reset",
      "outputs": [],
      "stateMutability": "nonpayable",
      "type": "function"
    }
  ],
  "bytecode": "0x608060405234801561001057600080fd5b5033600160006101000a81548173ffffffffffffffffffffffffffffffffffffffff021916908373ffffffffffffffffffffffffffffffffffffffff160217905550610e38806100616000396000f3fe608060405234801561001057600080fd5b506004361061007d5760003560e01c806399cdee0e1161005b57806399cdee0e146100d8578063c10ead3f146100f6578063c18b99f614610112578063d826f88f1461012e5761007d565b80636b668a431461008257806377321b631461009e578063797e7a48146100ba575b600080fd5b61009c600480360381019061009791906106a5565b610138565b005b6100b860048036038101906100b391906106a5565b61022e565b005b6100c2610324565b6040516100cf91906106f4565b60405180910390f35b6100e061032d565b6040516100ed9190610750565b60405180910390f35b610110600480360381019061010b91906106a5565b610353565b005b61012c600480360381019061012791906106a5565b61048c565b005b610136610582565b005b600160009054906101000a900473ffffffffffffffffffffffffffffffffffffffff1673ffffffffffffffffffffffffffffffffffffffff163373ffffffffffffffffffffffffffffffffffffffff16146101c8576040517f08c379a00000000000000000000000000000000000000000000000000000000081526004016101bf906107c8565b60405180910390fd5b80826101d49190610817565b6000819055503373ffffffffffffffffffffffffffffffffffffffff167f9381d7da0110305364b0c91faa430afcf0cd01c208ae823717a163d893df154160005460405161022291906108f7565b60405180910390a25050565b600160009054906101000a900473ffffffffffffffffffffffffffffffffffffffff1673ffffffffffffffffffffffffffffffffffffffff163373ffffffffffffffffffffffffffffffffffffffff16146102be576040517f08c379a00000000000000000000000000000000000000000000000000000000081526004016102b5906107c8565b60405180910390fd5b80826102ca9190610925565b6000819055503373ffffffffffffffffffffffffffffffffffffffff167f9381d7da0110305364b0c91faa430afcf0cd01c208ae823717a163d893df15416000546040516103189190610a05565b60405180910390a25050565b60008054905090565b600160009054906101000a900473ffffffffffffffffffffffffffffffffffffffff1681565b600160009054906101000a900473ffffffffffffffffffffffffffffffffffffffff1673ffffffffffffffffffffffffffffffffffffffff163373ffffffffffffffffffffffffffffffffffffffff16146103e3576040517f08c379a00000000000000000000000000000000000000000000000000000000081526004016103da906107c8565b60405180910390fd5b60008103610426576040517f08c379a000000000000000000000000000000000000000000000000000000000815260040161041d90610a7f565b60405180910390fd5b80826104329190610ace565b6000819055503373ffffffffffffffffffffffffffffffffffffffff167f9381d7da0110305364b0c91faa430afcf0cd01c208ae823717a163d893df15416000546040516104809190610b84565b60405180910390a25050565b600160009054906101000a900473ffffffffffffffffffffffffffffffffffffffff1673ffffffffffffffffffffffffffffffffffffffff163373ffffffffffffffffffffffffffffffffffffffff161461051c576040517f08c379a0000000000000000000000000000000000000000000000000000000008152600401610513906107c8565b60405180910390fd5b80826105289190610bb2565b6000819055503373ffffffffffffffffffffffffffffffffffffffff167f9381d7da0110305364b0c91faa430afcf0cd01c208ae823717a163d893df15416000546040516105769190610d15565b60405180910390a25050565b600160009054906101000a900473ffffffffffffffffffffffffffffffffffffffff1673ffffffffffffffffffffffffffffffffffffffff163373ffffffffffffffffffffffffffffffffffffffff1614610612576040517f08c379a0000000000000000000000000000000000000000000000000000000008152600401610609906107c8565b60405180910390fd5b600080819055503373ffffffffffffffffffffffffffffffffffffffff167f9381d7da0110305364b0c91faa430afcf0cd01c208ae823717a163d893df154160006040516106609190610dd4565b60405180910390a2565b600080fd5b6000819050919050565b6106828161066f565b811461068d57600080fd5b50565b60008135905061069f81610679565b92915050565b600080604083850312156106bc576106bb61066a565b5b60006106ca85828601610690565b92505060206106db85828601610690565b9150509250929050565b6106ee8161066f565b82525050565b600060208201905061070960008301846106e5565b92915050565b600073ffffffffffffffffffffffffffffffffffffffff82169050919050565b600061073a8261070f565b9050919050565b61074a8161072f565b82525050565b60006020820190506107656000830184610741565b92915050565b600082825260208201905092915050565b7f43616c6c6572206973206e6f7420746865206f776e65722e0000000000000000600082015250565b60006107b260188361076b565b91506107bd8261077c565b602082019050919050565b600060208201905081810360008301526107e1816107a5565b9050919050565b7f4e487b7100000000000000000000000000000000000000000000000000000000600052601160045260246000fd5b60006108228261066f565b915061082d8361066f565b9250817f7fffffffffffffffffffffffffffffffffffffffffffffffffffffffffffffff03831360008312151615610868576108676107e8565b5b817f80000000000000000000000000000000000000000000000000000000000000000383126000831216156108a05761089f6107e8565b5b828201905092915050565b7f6164640000000000000000000000000000000000000000000000000000000000600082015250565b60006108e160038361076b565b91506108ec826108ab565b602082019050919050565b60006040820190508181036000830152610910816108d4565b905061091f60208301846106e5565b92915050565b60006109308261066f565b915061093b8361066f565b9250827f800000000000000000000000000000000000000000000000000000000000000001821260008412151615610976576109756107e8565b5b827f7fffffffffffffffffffffffffffffffffffffffffffffffffffffffffffffff0182136000841216156109ae576109ad6107e8565b5b828203905092915050565b7f7375627472616374000000000000000000000000000000000000000000000000600082015250565b60006109ef60088361076b565b91506109fa826109b9565b602082019050919050565b60006040820190508181036000830152610a1e816109e2565b9050610a2d60208301846106e5565b92915050565b7f43616e6e6f7420646976696465206279207a65726f2e00000000000000000000600082015250565b6000610a6960168361076b565b9150610a7482610a33565b602082019050919050565b60006020820190508181036000830152610a9881610a5c565b9050919050565b7f4e487b7100000000000000000000000000000000000000000000000000000000600052601260045260246000fd5b6000610ad98261066f565b9150610ae48361066f565b925082610af457610af3610a9f565b5b600160000383147f800000000000000000000000000000000000000000000000000000000000000083141615610b2d57610b2c6107e8565b5b828205905092915050565b7f6469766964650000000000000000000000000000000000000000000000000000600082015250565b6000610b6e60068361076b565b9150610b7982610b38565b602082019050919050565b60006040820190508181036000830152610b9d81610b61565b9050610bac60208301846106e5565b92915050565b6000610bbd8261066f565b9150610bc88361066f565b9250827f7fffffffffffffffffffffffffffffffffffffffffffffffffffffffffffffff0482116000841360008413161615610c0757610c066107e8565b5b817f80000000000000000000000000000000000000000000000000000000000000000583126000841260008413161615610c4457610c436107e8565b5b827f80000000000000000000000000000000000000000000000000000000000000000582126000841360008412161615610c8157610c806107e8565b5b827f7fffffffffffffffffffffffffffffffffffffffffffffffffffffffffffffff0582126000841260008412161615610cbe57610cbd6107e8565b5b828202905092915050565b7f6d756c7469706c79000000000000000000000000000000000000000000000000600082015250565b6000610cff60088361076b565b9150610d0a82610cc9565b602082019050919050565b60006040820190508181036000830152610d2e81610cf2565b9050610d3d60208301846106e5565b92915050565b7f7265736574000000000000000000000000000000000000000000000000000000600082015250565b6000610d7960058361076b565b9150610d8482610d43565b602082019050919050565b6000819050919050565b6000819050919050565b6000610dbe610db9610db484610d8f565b610d99565b61066f565b9050919050565b610dce81610da3565b82525050565b60006040820190508181036000830152610ded81610d6c565b9050610dfc6020830184610dc5565b9291505056fea2646970667358221220274ef5545ad3556d671aeb6dded399674e36e10a2a6c4724f3f7afda1f0839da64736f6c634300080d0033",
  "immutableReferences": {},
  "source": "// SPDX-License-Identifier: MIT\npragma solidity ^0.8.13;\n\ncontract Calcu {\n    int private res;\n    address public own;\n\n    constructor() {\n        own = msg.sender;\n    }\n\n    event Calculation(address indexed sender, string action, int num);\n\n    modifier isOwner() {\n        require(msg.sender == own, \"Caller is not the owner.\");\n        _;\n    }\n\n    // Update res with result and emit event\n    function addTwo(int _a, int _b) public isOwner {\n        res = _a + _b;\n        emit Calculation(msg.sender, \"add\", res);\n    }\n\n    function subTwo(int _a, int _b) public isOwner {\n        res = _a - _b;\n        emit Calculation(msg.sender, \"subtract\", res);\n    }\n\n    function multiTwo(int _a, int _b) public isOwner {\n        res = _a * _b;\n        emit Calculation(msg.sender, \"multiply\", res);\n    }\n\n    function diviTwo(int _a, int _b) public isOwner {\n        require(_b != 0, \"Cannot divide by zero.\");\n        res = _a / _b;\n        emit Calculation(msg.sender, \"divide\", res);\n    }\n\n    function getRes() public view returns (int) {\n        return res;\n    }\n\n    function reset() public isOwner {\n        res = 0;\n        emit Calculation(msg.sender, \"reset\", 0);\n    }\n}\n",
  "sourcePath": "/Users/honey/Documents/summer_blockchain/Homewwork07_Basana/truffle_proj/contracts/Calcu.sol",
  "compiler": {
    "name": "solc",
    "version": "0.8.13+commit.abaa5c0e.Emscripten.clang"
  },
  "schemaVersion": "3.4.16",
  "updatedAt": "2025-07-11T02:39:11.249Z",
  "networkType": "ethereum",
  "devdoc": {
    "kind": "dev",
    "methods": {},
    "version": 1
  },
  "userdoc": {
    "kind": "user",
    "methods": {},
    "version": 1
  }
}